{
  "contractName": "Election",
  "abi": [
    {
      "constant": true,
      "inputs": [],
      "name": "candidatesCount",
      "outputs": [
        {
          "name": "",
          "type": "uint256"
        }
      ],
      "payable": false,
      "stateMutability": "view",
      "type": "function",
      "signature": "0x2d35a8a2"
    },
    {
      "constant": true,
      "inputs": [
        {
          "name": "",
          "type": "uint256"
        }
      ],
      "name": "candidates",
      "outputs": [
        {
          "name": "id",
          "type": "uint256"
        },
        {
          "name": "name",
          "type": "string"
        },
        {
          "name": "voteCount",
          "type": "uint256"
        }
      ],
      "payable": false,
      "stateMutability": "view",
      "type": "function",
      "signature": "0x3477ee2e"
    },
    {
      "constant": true,
      "inputs": [],
      "name": "voterCount",
      "outputs": [
        {
          "name": "",
          "type": "uint256"
        }
      ],
      "payable": false,
      "stateMutability": "view",
      "type": "function",
      "signature": "0x42169e48"
    },
    {
      "constant": true,
      "inputs": [
        {
          "name": "",
          "type": "uint256"
        }
      ],
      "name": "voters",
      "outputs": [
        {
          "name": "id",
          "type": "uint256"
        },
        {
          "name": "name",
          "type": "string"
        },
        {
          "name": "hasVoted",
          "type": "bool"
        }
      ],
      "payable": false,
      "stateMutability": "view",
      "type": "function",
      "signature": "0xda58c7d9"
    },
    {
      "inputs": [],
      "payable": false,
      "stateMutability": "nonpayable",
      "type": "constructor",
      "signature": "constructor"
    },
    {
      "anonymous": false,
      "inputs": [
        {
          "indexed": false,
          "name": "id",
          "type": "uint256"
        },
        {
          "indexed": false,
          "name": "tally",
          "type": "uint256"
        }
      ],
      "name": "VoteTracker",
      "type": "event",
      "signature": "0xc0b8fc47de070a719582cac5399ced6ee5db0f90271294dfc5cc1e6e5f15cd19"
    },
    {
      "constant": false,
      "inputs": [
        {
          "name": "_name",
          "type": "string"
        }
      ],
      "name": "addCandidate",
      "outputs": [],
      "payable": false,
      "stateMutability": "nonpayable",
      "type": "function",
      "signature": "0x462e91ec"
    },
    {
      "constant": false,
      "inputs": [
        {
          "name": "_id",
          "type": "uint256"
        },
        {
          "name": "_inc",
          "type": "uint256"
        }
      ],
      "name": "incrementVote",
      "outputs": [],
      "payable": false,
      "stateMutability": "nonpayable",
      "type": "function",
      "signature": "0xa85cb82b"
    },
    {
      "constant": false,
      "inputs": [
        {
          "name": "_name",
          "type": "string"
        }
      ],
      "name": "addVoter",
      "outputs": [],
      "payable": false,
      "stateMutability": "nonpayable",
      "type": "function",
      "signature": "0xaca84892"
    }
  ],
  "bytecode": "0x608060405234801561001057600080fd5b5061005e6040805190810160405280601181526020017f416e74686f6e79204170706c6567617465000000000000000000000000000000815250610231640100000000026401000000009004565b6100ab6040805190810160405280601581526020017f426172626172612042616e616e6168616d6d6f636b0000000000000000000000815250610231640100000000026401000000009004565b6100f86040805190810160405280600781526020017f566f7465722031000000000000000000000000000000000000000000000000008152506102ad640100000000026401000000009004565b6101456040805190810160405280600781526020017f566f7465722032000000000000000000000000000000000000000000000000008152506102ad640100000000026401000000009004565b6101926040805190810160405280600781526020017f566f7465722033000000000000000000000000000000000000000000000000008152506102ad640100000000026401000000009004565b6101df6040805190810160405280600781526020017f566f7465722034000000000000000000000000000000000000000000000000008152506102ad640100000000026401000000009004565b61022c6040805190810160405280600781526020017f566f7465722035000000000000000000000000000000000000000000000000008152506102ad640100000000026401000000009004565b6103e7565b60016000815480929190600101919050555060606040519081016040528060015481526020018281526020016000815250600080600154815260200190815260200160002060008201518160000155602082015181600101908051906020019061029c929190610342565b506040820151816002015590505050565b60036000815480929190600101919050555060606040519081016040528060035481526020018281526020016000151581525060026000600354815260200190815260200160002060008201518160000155602082015181600101908051906020019061031b929190610342565b5060408201518160020160006101000a81548160ff02191690831515021790555090505050565b828054600181600116156101000203166002900490600052602060002090601f016020900481019282601f1061038357805160ff19168380011785556103b1565b828001600101855582156103b1579182015b828111156103b0578251825591602001919060010190610395565b5b5090506103be91906103c2565b5090565b6103e491905b808211156103e05760008160009055506001016103c8565b5090565b90565b61084380620003f76000396000f3fe608060405260043610610083576000357c0100000000000000000000000000000000000000000000000000000000900463ffffffff1680632d35a8a2146100885780633477ee2e146100b357806342169e4814610175578063462e91ec146101a0578063a85cb82b14610268578063aca84892146102ad578063da58c7d914610375575b600080fd5b34801561009457600080fd5b5061009d61043b565b6040518082815260200191505060405180910390f35b3480156100bf57600080fd5b506100ec600480360360208110156100d657600080fd5b8101908080359060200190929190505050610441565b6040518084815260200180602001838152602001828103825284818151815260200191508051906020019080838360005b8381101561013857808201518184015260208101905061011d565b50505050905090810190601f1680156101655780820380516001836020036101000a031916815260200191505b5094505050505060405180910390f35b34801561018157600080fd5b5061018a610503565b6040518082815260200191505060405180910390f35b3480156101ac57600080fd5b50610266600480360360208110156101c357600080fd5b81019080803590602001906401000000008111156101e057600080fd5b8201836020820111156101f257600080fd5b8035906020019184600183028401116401000000008311171561021457600080fd5b91908080601f016020809104026020016040519081016040528093929190818152602001838380828437600081840152601f19601f820116905080830192505050505050509192919290505050610509565b005b34801561027457600080fd5b506102ab6004803603604081101561028b57600080fd5b810190808035906020019092919080359060200190929190505050610585565b005b3480156102b957600080fd5b50610373600480360360208110156102d057600080fd5b81019080803590602001906401000000008111156102ed57600080fd5b8201836020820111156102ff57600080fd5b8035906020019184600183028401116401000000008311171561032157600080fd5b91908080601f016020809104026020016040519081016040528093929190818152602001838380828437600081840152601f19601f82011690508083019250505050505050919291929050505061060e565b005b34801561038157600080fd5b506103ae6004803603602081101561039857600080fd5b81019080803590602001909291905050506106a3565b604051808481526020018060200183151515158152602001828103825284818151815260200191508051906020019080838360005b838110156103fe5780820151818401526020810190506103e3565b50505050905090810190601f16801561042b5780820380516001836020036101000a031916815260200191505b5094505050505060405180910390f35b60015481565b6000602052806000526040600020600091509050806000015490806001018054600181600116156101000203166002900480601f0160208091040260200160405190810160405280929190818152602001828054600181600116156101000203166002900480156104f35780601f106104c8576101008083540402835291602001916104f3565b820191906000526020600020905b8154815290600101906020018083116104d657829003601f168201915b5050505050908060020154905083565b60035481565b600160008154809291906001019190505550606060405190810160405280600154815260200182815260200160008152506000806001548152602001908152602001600020600082015181600001556020820151816001019080519060200190610574929190610772565b506040820151816002015590505050565b806000808481526020019081526020016000206002015401600080848152602001908152602001600020600201819055507fc0b8fc47de070a719582cac5399ced6ee5db0f90271294dfc5cc1e6e5f15cd198260008085815260200190815260200160002060020154604051808381526020018281526020019250505060405180910390a15050565b60036000815480929190600101919050555060606040519081016040528060035481526020018281526020016000151581525060026000600354815260200190815260200160002060008201518160000155602082015181600101908051906020019061067c929190610772565b5060408201518160020160006101000a81548160ff02191690831515021790555090505050565b6002602052806000526040600020600091509050806000015490806001018054600181600116156101000203166002900480601f0160208091040260200160405190810160405280929190818152602001828054600181600116156101000203166002900480156107555780601f1061072a57610100808354040283529160200191610755565b820191906000526020600020905b81548152906001019060200180831161073857829003601f168201915b5050505050908060020160009054906101000a900460ff16905083565b828054600181600116156101000203166002900490600052602060002090601f016020900481019282601f106107b357805160ff19168380011785556107e1565b828001600101855582156107e1579182015b828111156107e05782518255916020019190600101906107c5565b5b5090506107ee91906107f2565b5090565b61081491905b808211156108105760008160009055506001016107f8565b5090565b9056fea165627a7a7230582099e76f768a3522aa15096ca6b0f1b0d4d15077e219829a45edd5f13eb987c5050029",
  "source": "pragma solidity ^0.5.0;\n\ncontract Election {\n\n    struct Candidate {\n        uint id;\n        string name;\n        uint voteCount;\n    }\n    mapping(uint => Candidate) public candidates;\n\n    uint public candidatesCount;\n\n    struct Voter {\n        uint id;\n        string name;\n        bool hasVoted;\n    }\n    mapping(uint => Voter) public voters;\n\n    event VoteTracker(uint id, uint tally);\n\n    constructor () public {\n        addCandidate(\"Anthony Applegate\");\n        addCandidate(\"Barbara Bananahammock\");\n        addVoter(\"Voter 1\");\n        addVoter(\"Voter 2\");\n        addVoter(\"Voter 3\");\n        addVoter(\"Voter 4\");\n        addVoter(\"Voter 5\");\n    }\n\n    function addCandidate(string memory _name) public {\n        candidatesCount++;\n        candidates[candidatesCount] = Candidate(candidatesCount, _name, 0);\n    }\n\n    function incrementVote(uint _id, uint _inc) public {\n        candidates[_id].voteCount = candidates[_id].voteCount + _inc;\n        emit VoteTracker(_id, candidates[_id].voteCount);\n    }\n\n    uint public voterCount;\n\n    function addVoter(string memory _name) public {\n        voterCount++;\n        voters[voterCount] = Voter(voterCount, _name, false);\n    }\n\n}",
  "sourcePath": "/home/bev/Documents/WebDev/Northcoders/Project/SmartVote/contracts/Election.sol",
  "compiler": {
    "name": "solc",
    "version": "0.5.0+commit.1d4f565a.Emscripten.clang"
  },
  "schemaVersion": "3.0.1",
  "updatedAt": "2019-01-09T15:55:43.047Z",
  "devdoc": {
    "methods": {}
  },
  "userdoc": {
    "methods": {}
  }
}