{
  "contractName": "Election",
  "abi": [
    {
      "constant": true,
      "inputs": [],
      "name": "candidatesCount",
      "outputs": [
        {
          "name": "",
          "type": "uint256"
        }
      ],
      "payable": false,
      "stateMutability": "view",
      "type": "function",
      "signature": "0x2d35a8a2"
    },
    {
      "constant": true,
      "inputs": [
        {
          "name": "",
          "type": "uint256"
        }
      ],
      "name": "candidates",
      "outputs": [
        {
          "name": "id",
          "type": "uint256"
        },
        {
          "name": "name",
          "type": "string"
        },
        {
          "name": "voteCount",
          "type": "uint256"
        }
      ],
      "payable": false,
      "stateMutability": "view",
      "type": "function",
      "signature": "0x3477ee2e"
    },
    {
      "constant": true,
      "inputs": [],
      "name": "voterCount",
      "outputs": [
        {
          "name": "",
          "type": "uint256"
        }
      ],
      "payable": false,
      "stateMutability": "view",
      "type": "function",
      "signature": "0x42169e48"
    },
    {
      "constant": true,
      "inputs": [],
      "name": "owner",
      "outputs": [
        {
          "name": "",
          "type": "address"
        }
      ],
      "payable": false,
      "stateMutability": "view",
      "type": "function",
      "signature": "0x8da5cb5b"
    },
    {
      "constant": true,
      "inputs": [
        {
          "name": "",
          "type": "uint256"
        }
      ],
      "name": "voters",
      "outputs": [
        {
          "name": "id",
          "type": "uint256"
        },
        {
          "name": "name",
          "type": "address"
        },
        {
          "name": "hasVoted",
          "type": "bool"
        }
      ],
      "payable": false,
      "stateMutability": "view",
      "type": "function",
      "signature": "0xda58c7d9"
    },
    {
      "constant": true,
      "inputs": [],
      "name": "StartTime",
      "outputs": [
        {
          "name": "",
          "type": "uint256"
        }
      ],
      "payable": false,
      "stateMutability": "view",
      "type": "function",
      "signature": "0xfc4a4a1e"
    },
    {
      "inputs": [],
      "payable": false,
      "stateMutability": "nonpayable",
      "type": "constructor",
      "signature": "constructor"
    },
    {
      "anonymous": false,
      "inputs": [
        {
          "indexed": false,
          "name": "id",
          "type": "uint256"
        },
        {
          "indexed": false,
          "name": "tally",
          "type": "uint256"
        }
      ],
      "name": "VoteTracker",
      "type": "event",
      "signature": "0xc0b8fc47de070a719582cac5399ced6ee5db0f90271294dfc5cc1e6e5f15cd19"
    },
    {
      "constant": false,
      "inputs": [
        {
          "name": "_name",
          "type": "string"
        }
      ],
      "name": "addCandidate",
      "outputs": [],
      "payable": false,
      "stateMutability": "nonpayable",
      "type": "function",
      "signature": "0x462e91ec"
    },
    {
      "constant": false,
      "inputs": [
        {
          "name": "_name",
          "type": "string"
        }
      ],
      "name": "addOwnerCandidate",
      "outputs": [],
      "payable": false,
      "stateMutability": "nonpayable",
      "type": "function",
      "signature": "0x42ccf06d"
    },
    {
      "constant": false,
      "inputs": [
        {
          "name": "_id",
          "type": "uint256"
        },
        {
          "name": "_inc",
          "type": "uint256"
        }
      ],
      "name": "incrementVote",
      "outputs": [],
      "payable": false,
      "stateMutability": "nonpayable",
      "type": "function",
      "signature": "0xa85cb82b"
    },
    {
      "constant": false,
      "inputs": [],
      "name": "tellTime",
      "outputs": [
        {
          "name": "",
          "type": "uint256"
        }
      ],
      "payable": false,
      "stateMutability": "nonpayable",
      "type": "function",
      "signature": "0x79a37bd0"
    },
    {
      "constant": false,
      "inputs": [
        {
          "name": "_name",
          "type": "address"
        }
      ],
      "name": "addVoter",
      "outputs": [],
      "payable": false,
      "stateMutability": "nonpayable",
      "type": "function",
      "signature": "0xf4ab9adf"
    }
  ],
  "bytecode": "0x60806040524260035534801561001457600080fd5b50336000806101000a81548173ffffffffffffffffffffffffffffffffffffffff021916908373ffffffffffffffffffffffffffffffffffffffff1602179055506100a26040805190810160405280601181526020017f416e74686f6e79204170706c6567617465000000000000000000000000000000815250610120640100000000026401000000009004565b6100ef6040805190810160405280601581526020017f426172626172612042616e616e6168616d6d6f636b0000000000000000000000815250610120640100000000026401000000009004565b61011b73e7ba88433e60c53c69b19f503e00851b9889155161019d640100000000026401000000009004565b610317565b6002600081548092919060010191905055506060604051908101604052806002548152602001828152602001600081525060016000600254815260200190815260200160002060008201518160000155602082015181600101908051906020019061018c929190610272565b506040820151816002015590505050565b60056000815480929190600101919050555060606040519081016040528060055481526020018273ffffffffffffffffffffffffffffffffffffffff168152602001600015158152506004600060055481526020019081526020016000206000820151816000015560208201518160010160006101000a81548173ffffffffffffffffffffffffffffffffffffffff021916908373ffffffffffffffffffffffffffffffffffffffff16021790555060408201518160010160146101000a81548160ff02191690831515021790555090505050565b828054600181600116156101000203166002900490600052602060002090601f016020900481019282601f106102b357805160ff19168380011785556102e1565b828001600101855582156102e1579182015b828111156102e05782518255916020019190600101906102c5565b5b5090506102ee91906102f2565b5090565b61031491905b808211156103105760008160009055506001016102f8565b5090565b90565b610a0d806103266000396000f3fe6080604052600436106100af576000357c0100000000000000000000000000000000000000000000000000000000900463ffffffff1680632d35a8a2146100b45780633477ee2e146100df57806342169e48146101a157806342ccf06d146101cc578063462e91ec1461029457806379a37bd01461035c5780638da5cb5b14610387578063a85cb82b146103de578063da58c7d914610423578063f4ab9adf146104b0578063fc4a4a1e14610501575b600080fd5b3480156100c057600080fd5b506100c961052c565b6040518082815260200191505060405180910390f35b3480156100eb57600080fd5b506101186004803603602081101561010257600080fd5b8101908080359060200190929190505050610532565b6040518084815260200180602001838152602001828103825284818151815260200191508051906020019080838360005b83811015610164578082015181840152602081019050610149565b50505050905090810190601f1680156101915780820380516001836020036101000a031916815260200191505b5094505050505060405180910390f35b3480156101ad57600080fd5b506101b66105f4565b6040518082815260200191505060405180910390f35b3480156101d857600080fd5b50610292600480360360208110156101ef57600080fd5b810190808035906020019064010000000081111561020c57600080fd5b82018360208201111561021e57600080fd5b8035906020019184600183028401116401000000008311171561024057600080fd5b91908080601f016020809104026020016040519081016040528093929190818152602001838380828437600081840152601f19601f8201169050808301925050505050505091929192905050506105fa565b005b3480156102a057600080fd5b5061035a600480360360208110156102b757600080fd5b81019080803590602001906401000000008111156102d457600080fd5b8201836020820111156102e657600080fd5b8035906020019184600183028401116401000000008311171561030857600080fd5b91908080601f016020809104026020016040519081016040528093929190818152602001838380828437600081840152601f19601f8201169050808301925050505050505091929192905050506106d2565b005b34801561036857600080fd5b5061037161074f565b6040518082815260200191505060405180910390f35b34801561039357600080fd5b5061039c610759565b604051808273ffffffffffffffffffffffffffffffffffffffff1673ffffffffffffffffffffffffffffffffffffffff16815260200191505060405180910390f35b3480156103ea57600080fd5b506104216004803603604081101561040157600080fd5b81019080803590602001909291908035906020019092919050505061077e565b005b34801561042f57600080fd5b5061045c6004803603602081101561044657600080fd5b810190808035906020019092919050505061080a565b604051808481526020018373ffffffffffffffffffffffffffffffffffffffff1673ffffffffffffffffffffffffffffffffffffffff16815260200182151515158152602001935050505060405180910390f35b3480156104bc57600080fd5b506104ff600480360360208110156104d357600080fd5b81019080803573ffffffffffffffffffffffffffffffffffffffff169060200190929190505050610861565b005b34801561050d57600080fd5b50610516610936565b6040518082815260200191505060405180910390f35b60025481565b6001602052806000526040600020600091509050806000015490806001018054600181600116156101000203166002900480601f0160208091040260200160405190810160405280929190818152602001828054600181600116156101000203166002900480156105e45780601f106105b9576101008083540402835291602001916105e4565b820191906000526020600020905b8154815290600101906020018083116105c757829003601f168201915b5050505050908060020154905083565b60055481565b6000809054906101000a900473ffffffffffffffffffffffffffffffffffffffff1673ffffffffffffffffffffffffffffffffffffffff163373ffffffffffffffffffffffffffffffffffffffff1614151561065557600080fd5b600260008154809291906001019190505550606060405190810160405280600254815260200182815260200160008152506001600060025481526020019081526020016000206000820151816000015560208201518160010190805190602001906106c192919061093c565b506040820151816002015590505050565b6002600081548092919060010191905055506060604051908101604052806002548152602001828152602001600081525060016000600254815260200190815260200160002060008201518160000155602082015181600101908051906020019061073e92919061093c565b506040820151816002015590505050565b6000600354905090565b6000809054906101000a900473ffffffffffffffffffffffffffffffffffffffff1681565b8060016000848152602001908152602001600020600201540160016000848152602001908152602001600020600201819055507fc0b8fc47de070a719582cac5399ced6ee5db0f90271294dfc5cc1e6e5f15cd19826001600085815260200190815260200160002060020154604051808381526020018281526020019250505060405180910390a15050565b60046020528060005260406000206000915090508060000154908060010160009054906101000a900473ffffffffffffffffffffffffffffffffffffffff16908060010160149054906101000a900460ff16905083565b60056000815480929190600101919050555060606040519081016040528060055481526020018273ffffffffffffffffffffffffffffffffffffffff168152602001600015158152506004600060055481526020019081526020016000206000820151816000015560208201518160010160006101000a81548173ffffffffffffffffffffffffffffffffffffffff021916908373ffffffffffffffffffffffffffffffffffffffff16021790555060408201518160010160146101000a81548160ff02191690831515021790555090505050565b60035481565b828054600181600116156101000203166002900490600052602060002090601f016020900481019282601f1061097d57805160ff19168380011785556109ab565b828001600101855582156109ab579182015b828111156109aa57825182559160200191906001019061098f565b5b5090506109b891906109bc565b5090565b6109de91905b808211156109da5760008160009055506001016109c2565b5090565b9056fea165627a7a72305820af2ed3497fbc5de2cf336f9307ac09f7ed839b461d9710488edbbc321c6b184f0029",
  "source": "pragma solidity ^0.5.0;\n\ncontract owned {\n    address public owner;\n\n    constructor () public {\n        owner = msg.sender;\n    }\n\n    modifier onlyOwner {\n        require(msg.sender == owner);\n        _;\n    }\n}\n\ncontract Election is owned {\n\n    struct Candidate {\n        uint id;\n        string name;\n        uint voteCount;\n    }\n    mapping(uint => Candidate) public candidates;\n\n    //mapping(address => bool) public voters;\n\n    uint public candidatesCount;\n    uint256 public StartTime = now;\n\n    struct Voter {\n        uint id;\n        address name;\n        bool hasVoted;\n    }\n    mapping(uint => Voter) public voters;\n\n    event VoteTracker(uint id, uint tally);\n\n    constructor () public {\n        addCandidate(\"Anthony Applegate\");\n        addCandidate(\"Barbara Bananahammock\");\n        addVoter(0xe7BA88433E60C53c69b19f503e00851B98891551);\n    }\n\n    function addCandidate(string memory _name) public {\n        candidatesCount++;\n        candidates[candidatesCount] = Candidate(candidatesCount, _name, 0);\n    }\n\n    function addOwnerCandidate(string memory _name) public onlyOwner {\n        candidatesCount++;\n        candidates[candidatesCount] = Candidate(candidatesCount, _name, 0);\n    }\n    // function vote (uint _id) public {\n    //     require(!voters[msg.sender]);\n    //     voters[msg.sender] = true;\n    //     candidates[_id].voteCount++;\n    //     emit VoteTracker(_id, candidates[_id].voteCount);\n    // }\n\n\n    function incrementVote(uint _id, uint _inc) public {\n        // require(!voters[msg.sender]);\n        candidates[_id].voteCount = candidates[_id].voteCount + _inc;\n        emit VoteTracker(_id, candidates[_id].voteCount);\n    }\n\n    function tellTime() public returns (uint256) {\n        return StartTime;\n    }\n\n\n    uint public voterCount;\n\n    function addVoter(address _name) public {\n        voterCount++;\n        // iterate over all voters and check if the input address \n        // matches any of the existing addresses, if any match, do not allow to vote\n        voters[voterCount] = Voter(voterCount, _name, false);\n    }\n}\n",
  "sourcePath": "/home/bev/Documents/WebDev/Northcoders/Project/SmartVote/contracts/Election.sol",
  "compiler": {
    "name": "solc",
    "version": "0.5.0+commit.1d4f565a.Emscripten.clang"
  },
  "schemaVersion": "3.0.1",
  "updatedAt": "2019-01-10T15:57:08.681Z",
  "devdoc": {
    "methods": {}
  },
  "userdoc": {
    "methods": {}
  }
}