{
  "contractName": "Election",
  "abi": [
    {
      "constant": true,
      "inputs": [],
      "name": "candidatesCount",
      "outputs": [
        {
          "name": "",
          "type": "uint256"
        }
      ],
      "payable": false,
      "stateMutability": "view",
      "type": "function",
      "signature": "0x2d35a8a2"
    },
    {
      "constant": true,
      "inputs": [],
      "name": "EndTime",
      "outputs": [
        {
          "name": "",
          "type": "uint256"
        }
      ],
      "payable": false,
      "stateMutability": "view",
      "type": "function",
      "signature": "0x33360978"
    },
    {
      "constant": true,
      "inputs": [
        {
          "name": "",
          "type": "uint256"
        }
      ],
      "name": "candidates",
      "outputs": [
        {
          "name": "id",
          "type": "uint256"
        },
        {
          "name": "name",
          "type": "string"
        },
        {
          "name": "voteCount",
          "type": "uint256"
        }
      ],
      "payable": false,
      "stateMutability": "view",
      "type": "function",
      "signature": "0x3477ee2e"
    },
    {
      "constant": true,
      "inputs": [],
      "name": "voterCount",
      "outputs": [
        {
          "name": "",
          "type": "uint256"
        }
      ],
      "payable": false,
      "stateMutability": "view",
      "type": "function",
      "signature": "0x42169e48"
    },
    {
      "constant": true,
      "inputs": [],
      "name": "owner",
      "outputs": [
        {
          "name": "",
          "type": "address"
        }
      ],
      "payable": false,
      "stateMutability": "view",
      "type": "function",
      "signature": "0x8da5cb5b"
    },
    {
      "constant": true,
      "inputs": [
        {
          "name": "",
          "type": "uint256"
        }
      ],
      "name": "voters",
      "outputs": [
        {
          "name": "id",
          "type": "uint256"
        },
        {
          "name": "name",
          "type": "address"
        },
        {
          "name": "hasVoted",
          "type": "bool"
        }
      ],
      "payable": false,
      "stateMutability": "view",
      "type": "function",
      "signature": "0xda58c7d9"
    },
    {
      "constant": true,
      "inputs": [],
      "name": "StartTime",
      "outputs": [
        {
          "name": "",
          "type": "uint256"
        }
      ],
      "payable": false,
      "stateMutability": "view",
      "type": "function",
      "signature": "0xfc4a4a1e"
    },
    {
      "inputs": [],
      "payable": false,
      "stateMutability": "nonpayable",
      "type": "constructor",
      "signature": "constructor"
    },
    {
      "anonymous": false,
      "inputs": [
        {
          "indexed": false,
          "name": "id",
          "type": "uint256"
        },
        {
          "indexed": false,
          "name": "tally",
          "type": "uint256"
        }
      ],
      "name": "VoteTracker",
      "type": "event",
      "signature": "0xc0b8fc47de070a719582cac5399ced6ee5db0f90271294dfc5cc1e6e5f15cd19"
    },
    {
      "constant": false,
      "inputs": [
        {
          "name": "_name",
          "type": "string"
        }
      ],
      "name": "addCandidate",
      "outputs": [],
      "payable": false,
      "stateMutability": "nonpayable",
      "type": "function",
      "signature": "0x462e91ec"
    },
    {
      "constant": false,
      "inputs": [
        {
          "name": "_name",
          "type": "string"
        }
      ],
      "name": "addOwnerCandidate",
      "outputs": [],
      "payable": false,
      "stateMutability": "nonpayable",
      "type": "function",
      "signature": "0x42ccf06d"
    },
    {
      "constant": false,
      "inputs": [
        {
          "name": "_id",
          "type": "uint256"
        },
        {
          "name": "_inc",
          "type": "uint256"
        }
      ],
      "name": "incrementVote",
      "outputs": [],
      "payable": false,
      "stateMutability": "nonpayable",
      "type": "function",
      "signature": "0xa85cb82b"
    },
    {
      "constant": false,
      "inputs": [
        {
          "name": "_voteLength",
          "type": "uint256"
        }
      ],
      "name": "setEndTime",
      "outputs": [],
      "payable": false,
      "stateMutability": "nonpayable",
      "type": "function",
      "signature": "0xccb98ffc"
    },
    {
      "constant": false,
      "inputs": [
        {
          "name": "_name",
          "type": "address"
        }
      ],
      "name": "addVoter",
      "outputs": [],
      "payable": false,
      "stateMutability": "nonpayable",
      "type": "function",
      "signature": "0xf4ab9adf"
    }
  ],
  "bytecode": "0x60806040524260035534801561001457600080fd5b50336000806101000a81548173ffffffffffffffffffffffffffffffffffffffff021916908373ffffffffffffffffffffffffffffffffffffffff1602179055506100a26040805190810160405280601181526020017f416e74686f6e79204170706c6567617465000000000000000000000000000000815250610120640100000000026401000000009004565b6100ef6040805190810160405280601581526020017f426172626172612042616e616e6168616d6d6f636b0000000000000000000000815250610120640100000000026401000000009004565b61011b73e7ba88433e60c53c69b19f503e00851b9889155161019d640100000000026401000000009004565b610317565b6002600081548092919060010191905055506060604051908101604052806002548152602001828152602001600081525060016000600254815260200190815260200160002060008201518160000155602082015181600101908051906020019061018c929190610272565b506040820151816002015590505050565b60066000815480929190600101919050555060606040519081016040528060065481526020018273ffffffffffffffffffffffffffffffffffffffff168152602001600015158152506005600060065481526020019081526020016000206000820151816000015560208201518160010160006101000a81548173ffffffffffffffffffffffffffffffffffffffff021916908373ffffffffffffffffffffffffffffffffffffffff16021790555060408201518160010160146101000a81548160ff02191690831515021790555090505050565b828054600181600116156101000203166002900490600052602060002090601f016020900481019282601f106102b357805160ff19168380011785556102e1565b828001600101855582156102e1579182015b828111156102e05782518255916020019190600101906102c5565b5b5090506102ee91906102f2565b5090565b61031491905b808211156103105760008160009055506001016102f8565b5090565b90565b610a5d806103266000396000f3fe6080604052600436106100ba576000357c0100000000000000000000000000000000000000000000000000000000900463ffffffff1680632d35a8a2146100bf57806333360978146100ea5780633477ee2e1461011557806342169e48146101d757806342ccf06d14610202578063462e91ec146102ca5780638da5cb5b14610392578063a85cb82b146103e9578063ccb98ffc1461042e578063da58c7d914610469578063f4ab9adf146104f6578063fc4a4a1e14610547575b600080fd5b3480156100cb57600080fd5b506100d4610572565b6040518082815260200191505060405180910390f35b3480156100f657600080fd5b506100ff610578565b6040518082815260200191505060405180910390f35b34801561012157600080fd5b5061014e6004803603602081101561013857600080fd5b810190808035906020019092919050505061057e565b6040518084815260200180602001838152602001828103825284818151815260200191508051906020019080838360005b8381101561019a57808201518184015260208101905061017f565b50505050905090810190601f1680156101c75780820380516001836020036101000a031916815260200191505b5094505050505060405180910390f35b3480156101e357600080fd5b506101ec610640565b6040518082815260200191505060405180910390f35b34801561020e57600080fd5b506102c86004803603602081101561022557600080fd5b810190808035906020019064010000000081111561024257600080fd5b82018360208201111561025457600080fd5b8035906020019184600183028401116401000000008311171561027657600080fd5b91908080601f016020809104026020016040519081016040528093929190818152602001838380828437600081840152601f19601f820116905080830192505050505050509192919290505050610646565b005b3480156102d657600080fd5b50610390600480360360208110156102ed57600080fd5b810190808035906020019064010000000081111561030a57600080fd5b82018360208201111561031c57600080fd5b8035906020019184600183028401116401000000008311171561033e57600080fd5b91908080601f016020809104026020016040519081016040528093929190818152602001838380828437600081840152601f19601f82011690508083019250505050505050919291929050505061071e565b005b34801561039e57600080fd5b506103a761079b565b604051808273ffffffffffffffffffffffffffffffffffffffff1673ffffffffffffffffffffffffffffffffffffffff16815260200191505060405180910390f35b3480156103f557600080fd5b5061042c6004803603604081101561040c57600080fd5b8101908080359060200190929190803590602001909291905050506107c0565b005b34801561043a57600080fd5b506104676004803603602081101561045157600080fd5b810190808035906020019092919050505061084c565b005b34801561047557600080fd5b506104a26004803603602081101561048c57600080fd5b810190808035906020019092919050505061085a565b604051808481526020018373ffffffffffffffffffffffffffffffffffffffff1673ffffffffffffffffffffffffffffffffffffffff16815260200182151515158152602001935050505060405180910390f35b34801561050257600080fd5b506105456004803603602081101561051957600080fd5b81019080803573ffffffffffffffffffffffffffffffffffffffff1690602001909291905050506108b1565b005b34801561055357600080fd5b5061055c610986565b6040518082815260200191505060405180910390f35b60025481565b60045481565b6001602052806000526040600020600091509050806000015490806001018054600181600116156101000203166002900480601f0160208091040260200160405190810160405280929190818152602001828054600181600116156101000203166002900480156106305780601f1061060557610100808354040283529160200191610630565b820191906000526020600020905b81548152906001019060200180831161061357829003601f168201915b5050505050908060020154905083565b60065481565b6000809054906101000a900473ffffffffffffffffffffffffffffffffffffffff1673ffffffffffffffffffffffffffffffffffffffff163373ffffffffffffffffffffffffffffffffffffffff161415156106a157600080fd5b6002600081548092919060010191905055506060604051908101604052806002548152602001828152602001600081525060016000600254815260200190815260200160002060008201518160000155602082015181600101908051906020019061070d92919061098c565b506040820151816002015590505050565b6002600081548092919060010191905055506060604051908101604052806002548152602001828152602001600081525060016000600254815260200190815260200160002060008201518160000155602082015181600101908051906020019061078a92919061098c565b506040820151816002015590505050565b6000809054906101000a900473ffffffffffffffffffffffffffffffffffffffff1681565b8060016000848152602001908152602001600020600201540160016000848152602001908152602001600020600201819055507fc0b8fc47de070a719582cac5399ced6ee5db0f90271294dfc5cc1e6e5f15cd19826001600085815260200190815260200160002060020154604051808381526020018281526020019250505060405180910390a15050565b806003540160048190555050565b60056020528060005260406000206000915090508060000154908060010160009054906101000a900473ffffffffffffffffffffffffffffffffffffffff16908060010160149054906101000a900460ff16905083565b60066000815480929190600101919050555060606040519081016040528060065481526020018273ffffffffffffffffffffffffffffffffffffffff168152602001600015158152506005600060065481526020019081526020016000206000820151816000015560208201518160010160006101000a81548173ffffffffffffffffffffffffffffffffffffffff021916908373ffffffffffffffffffffffffffffffffffffffff16021790555060408201518160010160146101000a81548160ff02191690831515021790555090505050565b60035481565b828054600181600116156101000203166002900490600052602060002090601f016020900481019282601f106109cd57805160ff19168380011785556109fb565b828001600101855582156109fb579182015b828111156109fa5782518255916020019190600101906109df565b5b509050610a089190610a0c565b5090565b610a2e91905b80821115610a2a576000816000905550600101610a12565b5090565b9056fea165627a7a72305820e4868477cf4f67dfae1c5a0be48b21c383c2725bf8304ee2591ccaa7f5f6d2dd0029",
  "source": "pragma solidity ^0.5.0;\n\ncontract owned {\n    address public owner;\n\n    constructor () public {\n        owner = msg.sender;\n    }\n\n    modifier onlyOwner {\n        require(msg.sender == owner);\n        _;\n    }\n}\n\ncontract Election is owned {\n\n    struct Candidate {\n        uint id;\n        string name;\n        uint voteCount;\n    }\n    mapping(uint => Candidate) public candidates;\n\n    //mapping(address => bool) public voters;\n\n    uint public candidatesCount;\n    uint public StartTime = now;\n    uint public EndTime;\n\n    struct Voter {\n        uint id;\n        address name;\n        bool hasVoted;\n    }\n    mapping(uint => Voter) public voters;\n\n    event VoteTracker(uint id, uint tally);\n\n    constructor () public {\n        addCandidate(\"Anthony Applegate\");\n        addCandidate(\"Barbara Bananahammock\");\n        addVoter(0xe7BA88433E60C53c69b19f503e00851B98891551);\n    }\n\n    function addCandidate(string memory _name) public {\n        candidatesCount++;\n        candidates[candidatesCount] = Candidate(candidatesCount, _name, 0);\n    }\n\n    function addOwnerCandidate(string memory _name) public onlyOwner {\n        candidatesCount++;\n        candidates[candidatesCount] = Candidate(candidatesCount, _name, 0);\n    }\n    // function vote (uint _id) public {\n    //     require(!voters[msg.sender]);\n    //     voters[msg.sender] = true;\n    //     candidates[_id].voteCount++;\n    //     emit VoteTracker(_id, candidates[_id].voteCount);\n    // }\n\n\n    function incrementVote(uint _id, uint _inc) public {\n        // require(!voters[msg.sender]);\n        candidates[_id].voteCount = candidates[_id].voteCount + _inc;\n        emit VoteTracker(_id, candidates[_id].voteCount);\n    }\n\n    function setEndTime(uint _voteLength) public {\n        EndTime = StartTime + _voteLength;\n    }\n\n\n    uint public voterCount;\n\n    function addVoter(address _name) public {\n        voterCount++;\n        // iterate over all voters and check if the input address \n        // matches any of the existing addresses, if any match, do not allow to vote\n        voters[voterCount] = Voter(voterCount, _name, false);\n    }\n}\n",
  "sourcePath": "/home/bev/Documents/WebDev/Northcoders/Project/SmartVote/contracts/Election.sol",
  "compiler": {
    "name": "solc",
    "version": "0.5.0+commit.1d4f565a.Emscripten.clang"
  },
  "schemaVersion": "3.0.1",
  "updatedAt": "2019-01-10T16:27:14.618Z",
  "devdoc": {
    "methods": {}
  },
  "userdoc": {
    "methods": {}
  }
}