{
  "contractName": "Election",
  "abi": [
    {
      "constant": true,
      "inputs": [],
      "name": "candidatesCount",
      "outputs": [
        {
          "name": "",
          "type": "uint256"
        }
      ],
      "payable": false,
      "stateMutability": "view",
      "type": "function",
      "signature": "0x2d35a8a2"
    },
    {
      "constant": true,
      "inputs": [
        {
          "name": "",
          "type": "uint256"
        }
      ],
      "name": "candidates",
      "outputs": [
        {
          "name": "id",
          "type": "uint256"
        },
        {
          "name": "name",
          "type": "string"
        },
        {
          "name": "voteCount",
          "type": "uint256"
        }
      ],
      "payable": false,
      "stateMutability": "view",
      "type": "function",
      "signature": "0x3477ee2e"
    },
    {
      "inputs": [],
      "payable": false,
      "stateMutability": "nonpayable",
      "type": "constructor",
      "signature": "constructor"
    },
    {
      "constant": false,
      "inputs": [
        {
          "name": "_id",
          "type": "uint256"
        },
        {
          "name": "_inc",
          "type": "uint256"
        }
      ],
      "name": "incrementVote",
      "outputs": [],
      "payable": false,
      "stateMutability": "nonpayable",
      "type": "function",
      "signature": "0xa85cb82b"
    }
  ],
  "bytecode": "0x608060405234801561001057600080fd5b5061005e6040805190810160405280601181526020017f416e74686f6e79204170706c65676174650000000000000000000000000000008152506100b0640100000000026401000000009004565b6100ab6040805190810160405280601581526020017f426172626172612042616e616e6168616d6d6f636b00000000000000000000008152506100b0640100000000026401000000009004565b6101d1565b60016000815480929190600101919050555060606040519081016040528060015481526020018281526020016000815250600080600154815260200190815260200160002060008201518160000155602082015181600101908051906020019061011b92919061012c565b506040820151816002015590505050565b828054600181600116156101000203166002900490600052602060002090601f016020900481019282601f1061016d57805160ff191683800117855561019b565b8280016001018555821561019b579182015b8281111561019a57825182559160200191906001019061017f565b5b5090506101a891906101ac565b5090565b6101ce91905b808211156101ca5760008160009055506001016101b2565b5090565b90565b6102b7806101e06000396000f3fe608060405260043610610057576000357c0100000000000000000000000000000000000000000000000000000000900463ffffffff1680632d35a8a21461005c5780633477ee2e14610087578063a85cb82b14610149575b600080fd5b34801561006857600080fd5b5061007161018e565b6040518082815260200191505060405180910390f35b34801561009357600080fd5b506100c0600480360360208110156100aa57600080fd5b8101908080359060200190929190505050610194565b6040518084815260200180602001838152602001828103825284818151815260200191508051906020019080838360005b8381101561010c5780820151818401526020810190506100f1565b50505050905090810190601f1680156101395780820380516001836020036101000a031916815260200191505b5094505050505060405180910390f35b34801561015557600080fd5b5061018c6004803603604081101561016c57600080fd5b810190808035906020019092919080359060200190929190505050610256565b005b60015481565b6000602052806000526040600020600091509050806000015490806001018054600181600116156101000203166002900480601f0160208091040260200160405190810160405280929190818152602001828054600181600116156101000203166002900480156102465780601f1061021b57610100808354040283529160200191610246565b820191906000526020600020905b81548152906001019060200180831161022957829003601f168201915b5050505050908060020154905083565b80600080848152602001908152602001600020600201540160008084815260200190815260200160002060020181905550505056fea165627a7a72305820239550f51f585e4dc3ef755921332e348a5d4511e2ebe5867aebb0649d5810980029",
  "source": "pragma solidity ^0.5.0;\n\ncontract Election {\n\n    struct Candidate {\n        uint id;\n        string name;\n        uint voteCount;\n    }\n    mapping(uint => Candidate) public candidates;\n    uint public candidatesCount;\n\n    constructor () public {\n        addCandidate(\"Anthony Applegate\");\n        addCandidate(\"Barbara Bananahammock\");\n\n    }\n\n    function addCandidate(string memory _name) private {\n        candidatesCount++;\n        candidates[candidatesCount] = Candidate(candidatesCount, _name, 0);\n    }\n\n    function incrementVote(uint _id, uint _inc) public {\n        candidates[_id].voteCount = candidates[_id].voteCount + _inc;\n    }\n}\n",
  "sourcePath": "/Users/xav/Desktop/NorthCoders/project/SmartVote/contracts/Election.sol",
  "compiler": {
    "name": "solc",
    "version": "0.5.0+commit.1d4f565a.Emscripten.clang"
  },
  "schemaVersion": "3.0.0",
  "updatedAt": "2019-01-08T20:02:44.535Z",
  "devdoc": {
    "methods": {}
  },
  "userdoc": {
    "methods": {}
  }
}