{
  "contractName": "owned",
  "abi": [
    {
      "constant": true,
      "inputs": [],
      "name": "owner",
      "outputs": [
        {
          "name": "",
          "type": "address"
        }
      ],
      "payable": false,
      "stateMutability": "view",
      "type": "function"
    },
    {
      "inputs": [],
      "payable": false,
      "stateMutability": "nonpayable",
      "type": "constructor"
    }
  ],
  "bytecode": "0x608060405234801561001057600080fd5b50336000806101000a81548173ffffffffffffffffffffffffffffffffffffffff021916908373ffffffffffffffffffffffffffffffffffffffff16021790555060e98061005f6000396000f3fe608060405260043610603f576000357c0100000000000000000000000000000000000000000000000000000000900463ffffffff1680638da5cb5b146044575b600080fd5b348015604f57600080fd5b5060566098565b604051808273ffffffffffffffffffffffffffffffffffffffff1673ffffffffffffffffffffffffffffffffffffffff16815260200191505060405180910390f35b6000809054906101000a900473ffffffffffffffffffffffffffffffffffffffff168156fea165627a7a72305820a254126427de65804367c37303222177091943921a6c28050a4a3628658c19300029",
  "source": "pragma solidity ^0.5.0;\n\ncontract owned {\n    address public owner;\n\n    constructor () public {\n        owner = msg.sender;\n    }\n\n    modifier onlyOwner {\n        require(msg.sender == owner);\n        _;\n    }\n}\n\ncontract Election is owned {\n\n    struct Candidate {\n        uint id;\n        string name;\n        uint voteCount;\n    }\n    mapping(uint => Candidate) public candidates;\n\n    //mapping(address => bool) public voters;\n\n    uint public candidatesCount;\n\n    struct Voter {\n        uint id;\n        string name;\n        bool hasVoted;\n    }\n    mapping(uint => Voter) public voters;\n\n    event VoteTracker(uint id, uint tally);\n\n    constructor () public {\n        addCandidate(\"Anthony Applegate\");\n        addCandidate(\"Barbara Bananahammock\");\n    }\n\n    function addCandidate(string memory _name) public {\n        candidatesCount++;\n        candidates[candidatesCount] = Candidate(candidatesCount, _name, 0);\n    }\n\n    function addOwnerCandidate(string memory _name) public onlyOwner {\n        candidatesCount++;\n        candidates[candidatesCount] = Candidate(candidatesCount, _name, 0);\n    }\n    // function vote (uint _id) public {\n    //     require(!voters[msg.sender]);\n    //     voters[msg.sender] = true;\n    //     candidates[_id].voteCount++;\n    //     emit VoteTracker(_id, candidates[_id].voteCount);\n    // }\n\n\n    function incrementVote(uint _id, uint _inc) public {\n        candidates[_id].voteCount = candidates[_id].voteCount + _inc;\n        emit VoteTracker(_id, candidates[_id].voteCount);\n    }\n\n\n    uint public voterCount;\n\n    function addVoter(string memory _name) public {\n        voterCount++;\n        voters[voterCount] = Voter(voterCount, _name, false);\n    }\n\n}\n",
  "sourcePath": "/Users/xav/Desktop/NorthCoders/project/SmartVote/contracts/Election.sol",
  "compiler": {
    "name": "solc",
    "version": "0.5.0+commit.1d4f565a.Emscripten.clang"
  },
  "schemaVersion": "3.0.0",
  "updatedAt": "2019-01-10T10:45:43.633Z",
  "devdoc": {
    "methods": {}
  },
  "userdoc": {
    "methods": {}
  }
}