{
  "contractName": "owned",
  "abi": [
    {
      "constant": true,
      "inputs": [],
      "name": "owner",
      "outputs": [
        {
          "name": "",
          "type": "address"
        }
      ],
      "payable": false,
      "stateMutability": "view",
      "type": "function"
    },
    {
      "inputs": [],
      "payable": false,
      "stateMutability": "nonpayable",
      "type": "constructor"
    }
  ],
  "bytecode": "0x608060405234801561001057600080fd5b50336000806101000a81548173ffffffffffffffffffffffffffffffffffffffff021916908373ffffffffffffffffffffffffffffffffffffffff16021790555060e98061005f6000396000f3fe608060405260043610603f576000357c0100000000000000000000000000000000000000000000000000000000900463ffffffff1680638da5cb5b146044575b600080fd5b348015604f57600080fd5b5060566098565b604051808273ffffffffffffffffffffffffffffffffffffffff1673ffffffffffffffffffffffffffffffffffffffff16815260200191505060405180910390f35b6000809054906101000a900473ffffffffffffffffffffffffffffffffffffffff168156fea165627a7a72305820505d3d016b2a47a3396e569bbd7675bb93ec66639589fcd90b723215dbeb409e0029",
  "source": "pragma solidity ^0.5.0;\n\ncontract owned {\n    address public owner;\n\n    constructor () public {\n        owner = msg.sender;\n    }\n\n    modifier onlyOwner {\n        require(msg.sender == owner);\n        _;\n    }\n}\n\ncontract Election is owned {\n\n    struct Candidate {\n        uint id;\n        string name;\n        uint voteCount;\n    }\n    mapping(uint => Candidate) public candidates;\n\n    //mapping(address => bool) public voters;\n\n    uint public candidatesCount;\n\n    struct Voter {\n        uint id;\n        address name;\n        bool hasVoted;\n    }\n    mapping(uint => Voter) public voters;\n\n    event VoteTracker(uint id, uint tally);\n\n    constructor () public {\n        addCandidate(\"Anthony Applegate\");\n        addCandidate(\"Barbara Bananahammock\");\n        addVoter(0xe7BA88433E60C53c69b19f503e00851B98891551);\n    }\n\n    function addCandidate(string memory _name) public {\n        candidatesCount++;\n        candidates[candidatesCount] = Candidate(candidatesCount, _name, 0);\n    }\n\n    function addOwnerCandidate(string memory _name) public onlyOwner {\n        candidatesCount++;\n        candidates[candidatesCount] = Candidate(candidatesCount, _name, 0);\n    }\n    // function vote (uint _id) public {\n    //     require(!voters[msg.sender]);\n    //     voters[msg.sender] = true;\n    //     candidates[_id].voteCount++;\n    //     emit VoteTracker(_id, candidates[_id].voteCount);\n    // }\n\n\n    function incrementVote(uint _id, uint _inc) public {\n        // require(!voters[msg.sender]);\n        candidates[_id].voteCount = candidates[_id].voteCount + _inc;\n        emit VoteTracker(_id, candidates[_id].voteCount);\n    }\n\n\n    uint public voterCount;\n\n    function addVoter(address _name) public {\n        voterCount++;\n        // iterate over all voters and check if the input address \n        // matches any of the existing addresses, if any match, do not allow to vote\n        voters[voterCount] = Voter(voterCount, _name, false);\n    }\n}\n",
  "sourcePath": "/home/bev/Documents/WebDev/Northcoders/Project/SmartVote/contracts/Election.sol",
  "compiler": {
    "name": "solc",
    "version": "0.5.0+commit.1d4f565a.Emscripten.clang"
  },
  "schemaVersion": "3.0.1",
  "updatedAt": "2019-01-10T12:05:10.606Z",
  "devdoc": {
    "methods": {}
  },
  "userdoc": {
    "methods": {}
  }
}