{
  "contractName": "Vote",
  "abi": [
    {
      "constant": true,
      "inputs": [],
      "name": "candidatesCount",
      "outputs": [
        {
          "name": "",
          "type": "uint256"
        }
      ],
      "payable": false,
      "stateMutability": "view",
      "type": "function",
      "signature": "0x2d35a8a2"
    },
    {
      "constant": true,
      "inputs": [],
      "name": "voterCount",
      "outputs": [
        {
          "name": "",
          "type": "uint256"
        }
      ],
      "payable": false,
      "stateMutability": "view",
      "type": "function",
      "signature": "0x42169e48"
    },
    {
      "constant": true,
      "inputs": [
        {
          "name": "",
          "type": "uint256"
        }
      ],
      "name": "elections",
      "outputs": [
        {
          "name": "creator",
          "type": "address"
        },
        {
          "name": "electionName",
          "type": "string"
        },
        {
          "name": "voteCount",
          "type": "uint256"
        },
        {
          "name": "expirationTime",
          "type": "uint256"
        },
        {
          "name": "candidatesCount",
          "type": "uint256"
        }
      ],
      "payable": false,
      "stateMutability": "view",
      "type": "function",
      "signature": "0x5e6fef01"
    },
    {
      "constant": true,
      "inputs": [],
      "name": "electionCount",
      "outputs": [
        {
          "name": "",
          "type": "uint256"
        }
      ],
      "payable": false,
      "stateMutability": "view",
      "type": "function",
      "signature": "0x997d2830"
    },
    {
      "constant": true,
      "inputs": [
        {
          "name": "",
          "type": "uint256"
        }
      ],
      "name": "candidatesStorage",
      "outputs": [
        {
          "name": "id",
          "type": "uint256"
        },
        {
          "name": "name",
          "type": "bytes32"
        },
        {
          "name": "voteCount",
          "type": "uint256"
        }
      ],
      "payable": false,
      "stateMutability": "view",
      "type": "function",
      "signature": "0xb72bbdc9"
    },
    {
      "constant": true,
      "inputs": [],
      "name": "testString",
      "outputs": [
        {
          "name": "",
          "type": "string"
        }
      ],
      "payable": false,
      "stateMutability": "view",
      "type": "function",
      "signature": "0xfb8f0f59"
    },
    {
      "inputs": [],
      "payable": false,
      "stateMutability": "nonpayable",
      "type": "constructor",
      "signature": "constructor"
    },
    {
      "constant": false,
      "inputs": [
        {
          "name": "_creator",
          "type": "address"
        },
        {
          "name": "_electionName",
          "type": "string"
        },
        {
          "name": "_expirationTime",
          "type": "uint256"
        },
        {
          "name": "newCandidates",
          "type": "bytes32[]"
        }
      ],
      "name": "startElection",
      "outputs": [],
      "payable": false,
      "stateMutability": "nonpayable",
      "type": "function",
      "signature": "0x67d99d9c"
    }
  ],
  "bytecode": "0x6080604052606060405190810160405280602181526020017f496d206865726520666f722074657374696e672c206c65617665206d6520626581526020017f210000000000000000000000000000000000000000000000000000000000000081525060009080519060200190610076929190610089565b5034801561008357600080fd5b5061012e565b828054600181600116156101000203166002900490600052602060002090601f016020900481019282601f106100ca57805160ff19168380011785556100f8565b828001600101855582156100f8579182015b828111156100f75782518255916020019190600101906100dc565b5b5090506101059190610109565b5090565b61012b91905b8082111561012757600081600090555060010161010f565b5090565b90565b6108b18061013d6000396000f3fe608060405260043610610083576000357c0100000000000000000000000000000000000000000000000000000000900463ffffffff1680632d35a8a21461008857806342169e48146100b35780635e6fef01146100de57806367d99d9c146101da578063997d283014610360578063b72bbdc91461038b578063fb8f0f59146103e8575b600080fd5b34801561009457600080fd5b5061009d610478565b6040518082815260200191505060405180910390f35b3480156100bf57600080fd5b506100c861047e565b6040518082815260200191505060405180910390f35b3480156100ea57600080fd5b506101176004803603602081101561010157600080fd5b8101908080359060200190929190505050610484565b604051808673ffffffffffffffffffffffffffffffffffffffff1673ffffffffffffffffffffffffffffffffffffffff16815260200180602001858152602001848152602001838152602001828103825286818151815260200191508051906020019080838360005b8381101561019b578082015181840152602081019050610180565b50505050905090810190601f1680156101c85780820380516001836020036101000a031916815260200191505b50965050505050505060405180910390f35b3480156101e657600080fd5b5061035e600480360360808110156101fd57600080fd5b81019080803573ffffffffffffffffffffffffffffffffffffffff1690602001909291908035906020019064010000000081111561023a57600080fd5b82018360208201111561024c57600080fd5b8035906020019184600183028401116401000000008311171561026e57600080fd5b91908080601f016020809104026020016040519081016040528093929190818152602001838380828437600081840152601f19601f82011690508083019250505050505050919291929080359060200190929190803590602001906401000000008111156102db57600080fd5b8201836020820111156102ed57600080fd5b8035906020019184602083028401116401000000008311171561030f57600080fd5b919080806020026020016040519081016040528093929190818152602001838360200280828437600081840152601f19601f820116905080830192505050505050509192919290505050610572565b005b34801561036c57600080fd5b50610375610703565b6040518082815260200191505060405180910390f35b34801561039757600080fd5b506103c4600480360360208110156103ae57600080fd5b8101908080359060200190929190505050610709565b60405180848152602001838152602001828152602001935050505060405180910390f35b3480156103f457600080fd5b506103fd610742565b6040518080602001828103825283818151815260200191508051906020019080838360005b8381101561043d578082015181840152602081019050610422565b50505050905090810190601f16801561046a5780820380516001836020036101000a031916815260200191505b509250505060405180910390f35b60055481565b60045481565b60026020528060005260406000206000915090508060000160009054906101000a900473ffffffffffffffffffffffffffffffffffffffff1690806001018054600181600116156101000203166002900480601f0160208091040260200160405190810160405280929190818152602001828054600181600116156101000203166002900480156105565780601f1061052b57610100808354040283529160200191610556565b820191906000526020600020905b81548152906001019060200180831161053957829003601f168201915b5050505050908060020154908060030154908060040154905085565b60016000815480929190600101919050555060008090505b815181101561062257600360606040519081016040528083815260200184848151811015156105b557fe5b906020019060200201518152602001600081525090806001815401808255809150509060018203906000526020600020906003020160009091929091909150600082015181600001556020820151816001015560408201518160020155505050808060010191505061058a565b5060a0604051908101604052808573ffffffffffffffffffffffffffffffffffffffff16815260200184815260200160008152602001838152602001600081525060026000600154815260200190815260200160002060008201518160000160006101000a81548173ffffffffffffffffffffffffffffffffffffffff021916908373ffffffffffffffffffffffffffffffffffffffff16021790555060208201518160010190805190602001906106db9291906107e0565b5060408201518160020155606082015181600301556080820151816004015590505050505050565b60015481565b60038181548110151561071857fe5b90600052602060002090600302016000915090508060000154908060010154908060020154905083565b60008054600181600116156101000203166002900480601f0160208091040260200160405190810160405280929190818152602001828054600181600116156101000203166002900480156107d85780601f106107ad576101008083540402835291602001916107d8565b820191906000526020600020905b8154815290600101906020018083116107bb57829003601f168201915b505050505081565b828054600181600116156101000203166002900490600052602060002090601f016020900481019282601f1061082157805160ff191683800117855561084f565b8280016001018555821561084f579182015b8281111561084e578251825591602001919060010190610833565b5b50905061085c9190610860565b5090565b61088291905b8082111561087e576000816000905550600101610866565b5090565b9056fea165627a7a723058208b1b177676d9dfb95a38a32b47135711322e4c17adab95ee0bd8f96104cb76c00029",
  "source": "pragma solidity ^0.5.0;\n\ncontract Vote {\n\n    string public testString = \"Im here for testing, leave me be!\";\n    // please do not remove testString\n\n    struct Election {\n        address creator;\n        string electionName;\n        uint voteCount;\n        uint expirationTime;\n        uint candidatesCount;\n        // bytes32[] candidates;\n    }\n\n    uint public electionCount;\n    mapping(uint => Election) public elections;\n    Candidate[] public candidatesStorage;\n\n\n    function startElection(address _creator, string memory _electionName, uint _expirationTime, bytes32[] memory newCandidates) public {\n        electionCount++;\n        for (uint i = 0; i < newCandidates.length; i++) {\n            candidatesStorage.push(Candidate({\n                id: i,\n                name: newCandidates[i],\n                voteCount: 0\n            }));\n        }\n        elections[electionCount] = Election(_creator, _electionName, 0, _expirationTime, 0);\n    }\n\n    struct Candidate  {\n        uint id;\n        bytes32 name;\n        uint voteCount;\n    }\n\n    struct Voter {\n        address name;\n        bool hasVoted;\n    }\n\n    uint public voterCount;\n    uint public candidatesCount;\n\n\n    constructor () public {\n    }\n}\n\n// bytes32\n//  [\n//     '0x63616e646964617465206f6e65',\n//     '0x63616e6469646174652074776f'\n//   ]",
  "sourcePath": "/Users/xav/Desktop/NorthCoders/project/SmartVote/contracts/Vote.sol",
  "compiler": {
    "name": "solc",
    "version": "0.5.0+commit.1d4f565a.Emscripten.clang"
  },
  "schemaVersion": "3.0.0",
  "updatedAt": "2019-01-13T11:00:57.456Z",
  "devdoc": {
    "methods": {}
  },
  "userdoc": {
    "methods": {}
  }
}