{
  "contractName": "Vote",
  "abi": [
    {
      "constant": true,
      "inputs": [],
      "name": "candidatesCount",
      "outputs": [
        {
          "name": "",
          "type": "uint256"
        }
      ],
      "payable": false,
      "stateMutability": "view",
      "type": "function",
      "signature": "0x2d35a8a2"
    },
    {
      "constant": true,
      "inputs": [],
      "name": "voterCount",
      "outputs": [
        {
          "name": "",
          "type": "uint256"
        }
      ],
      "payable": false,
      "stateMutability": "view",
      "type": "function",
      "signature": "0x42169e48"
    },
    {
      "constant": true,
      "inputs": [
        {
          "name": "",
          "type": "uint256"
        }
      ],
      "name": "elections",
      "outputs": [
        {
          "name": "creator",
          "type": "address"
        },
        {
          "name": "electionName",
          "type": "string"
        },
        {
          "name": "voteCount",
          "type": "uint256"
        },
        {
          "name": "expirationTime",
          "type": "uint256"
        },
        {
          "name": "candidatesCount",
          "type": "uint256"
        }
      ],
      "payable": false,
      "stateMutability": "view",
      "type": "function",
      "signature": "0x5e6fef01"
    },
    {
      "constant": true,
      "inputs": [],
      "name": "electionCount",
      "outputs": [
        {
          "name": "",
          "type": "uint256"
        }
      ],
      "payable": false,
      "stateMutability": "view",
      "type": "function",
      "signature": "0x997d2830"
    },
    {
      "constant": true,
      "inputs": [],
      "name": "testString",
      "outputs": [
        {
          "name": "",
          "type": "string"
        }
      ],
      "payable": false,
      "stateMutability": "view",
      "type": "function",
      "signature": "0xfb8f0f59"
    },
    {
      "inputs": [],
      "payable": false,
      "stateMutability": "nonpayable",
      "type": "constructor",
      "signature": "constructor"
    },
    {
      "constant": false,
      "inputs": [
        {
          "name": "_creator",
          "type": "address"
        },
        {
          "name": "_electionName",
          "type": "string"
        },
        {
          "name": "_voteLength",
          "type": "uint256"
        }
      ],
      "name": "startElection",
      "outputs": [],
      "payable": false,
      "stateMutability": "nonpayable",
      "type": "function",
      "signature": "0x6d1dfe3b"
    },
    {
      "constant": false,
      "inputs": [
        {
          "name": "_electionId",
          "type": "uint256"
        },
        {
          "name": "_candidateName",
          "type": "string"
        }
      ],
      "name": "addElectionCandidate",
      "outputs": [],
      "payable": false,
      "stateMutability": "nonpayable",
      "type": "function",
      "signature": "0x96f664fa"
    },
    {
      "constant": false,
      "inputs": [
        {
          "name": "_electionId",
          "type": "uint256"
        }
      ],
      "name": "showElectionCandidates",
      "outputs": [
        {
          "name": "name",
          "type": "string"
        }
      ],
      "payable": false,
      "stateMutability": "nonpayable",
      "type": "function",
      "signature": "0x70d7e9c8"
    },
    {
      "constant": false,
      "inputs": [
        {
          "name": "_voteLength",
          "type": "uint256"
        }
      ],
      "name": "setTimer",
      "outputs": [
        {
          "name": "",
          "type": "uint256"
        }
      ],
      "payable": false,
      "stateMutability": "nonpayable",
      "type": "function",
      "signature": "0xb976bd17"
    }
  ],
  "bytecode": "0x6080604052606060405190810160405280602181526020017f496d206865726520666f722074657374696e672c206c65617665206d6520626581526020017f210000000000000000000000000000000000000000000000000000000000000081525060009080519060200190610076929190610089565b5034801561008357600080fd5b5061012e565b828054600181600116156101000203166002900490600052602060002090601f016020900481019282601f106100ca57805160ff19168380011785556100f8565b828001600101855582156100f8579182015b828111156100f75782518255916020019190600101906100dc565b5b5090506101059190610109565b5090565b61012b91905b8082111561012757600081600090555060010161010f565b5090565b90565b610a568061013d6000396000f3fe608060405260043610610099576000357c0100000000000000000000000000000000000000000000000000000000900463ffffffff1680632d35a8a21461009e57806342169e48146100c95780635e6fef01146100f45780636d1dfe3b146101f057806370d7e9c8146102e257806396f664fa14610396578063997d283014610468578063b976bd1714610493578063fb8f0f59146104e2575b600080fd5b3480156100aa57600080fd5b506100b3610572565b6040518082815260200191505060405180910390f35b3480156100d557600080fd5b506100de610578565b6040518082815260200191505060405180910390f35b34801561010057600080fd5b5061012d6004803603602081101561011757600080fd5b810190808035906020019092919050505061057e565b604051808673ffffffffffffffffffffffffffffffffffffffff1673ffffffffffffffffffffffffffffffffffffffff16815260200180602001858152602001848152602001838152602001828103825286818151815260200191508051906020019080838360005b838110156101b1578082015181840152602081019050610196565b50505050905090810190601f1680156101de5780820380516001836020036101000a031916815260200191505b50965050505050505060405180910390f35b3480156101fc57600080fd5b506102e06004803603606081101561021357600080fd5b81019080803573ffffffffffffffffffffffffffffffffffffffff1690602001909291908035906020019064010000000081111561025057600080fd5b82018360208201111561026257600080fd5b8035906020019184600183028401116401000000008311171561028457600080fd5b91908080601f016020809104026020016040519081016040528093929190818152602001838380828437600081840152601f19601f8201169050808301925050505050505091929192908035906020019092919050505061066c565b005b3480156102ee57600080fd5b5061031b6004803603602081101561030557600080fd5b810190808035906020019092919050505061076b565b6040518080602001828103825283818151815260200191508051906020019080838360005b8381101561035b578082015181840152602081019050610340565b50505050905090810190601f1680156103885780820380516001836020036101000a031916815260200191505b509250505060405180910390f35b3480156103a257600080fd5b50610466600480360360408110156103b957600080fd5b8101908080359060200190929190803590602001906401000000008111156103e057600080fd5b8201836020820111156103f257600080fd5b8035906020019184600183028401116401000000008311171561041457600080fd5b91908080601f016020809104026020016040519081016040528093929190818152602001838380828437600081840152601f19601f820116905080830192505050505050509192919290505050610838565b005b34801561047457600080fd5b5061047d6108d0565b6040518082815260200191505060405180910390f35b34801561049f57600080fd5b506104cc600480360360208110156104b657600080fd5b81019080803590602001909291905050506108d6565b6040518082815260200191505060405180910390f35b3480156104ee57600080fd5b506104f76108e7565b6040518080602001828103825283818151815260200191508051906020019080838360005b8381101561053757808201518184015260208101905061051c565b50505050905090810190601f1680156105645780820380516001836020036101000a031916815260200191505b509250505060405180910390f35b60045481565b60035481565b60026020528060005260406000206000915090508060000160009054906101000a900473ffffffffffffffffffffffffffffffffffffffff1690806001018054600181600116156101000203166002900480601f0160208091040260200160405190810160405280929190818152602001828054600181600116156101000203166002900480156106505780601f1061062557610100808354040283529160200191610650565b820191906000526020600020905b81548152906001019060200180831161063357829003601f168201915b5050505050908060020154908060030154908060040154905085565b6001600081548092919060010191905055506000610689826108d6565b905060a0604051908101604052808573ffffffffffffffffffffffffffffffffffffffff16815260200184815260200160008152602001828152602001600081525060026000600154815260200190815260200160002060008201518160000160006101000a81548173ffffffffffffffffffffffffffffffffffffffff021916908373ffffffffffffffffffffffffffffffffffffffff1602179055506020820151816001019080519060200190610743929190610985565b5060408201518160020155606082015181600301556080820151816004015590505050505050565b6060600260008381526020019081526020016000206006016000600181526020019081526020016000206001018054600181600116156101000203166002900480601f01602080910402602001604051908101604052809291908181526020018280546001816001161561010002031660029004801561082c5780601f106108015761010080835404028352916020019161082c565b820191906000526020600020905b81548152906001019060200180831161080f57829003601f168201915b50505050509050919050565b60006002600084815260200190815260200160002090506060604051908101604052808260040154815260200183815260200160008152508160060160008360040160008154809291906001019190505581526020019081526020016000206000820151816000015560208201518160010190805190602001906108bd929190610985565b5060408201518160020155905050505050565b60015481565b600080429050828101915050919050565b60008054600181600116156101000203166002900480601f01602080910402602001604051908101604052809291908181526020018280546001816001161561010002031660029004801561097d5780601f106109525761010080835404028352916020019161097d565b820191906000526020600020905b81548152906001019060200180831161096057829003601f168201915b505050505081565b828054600181600116156101000203166002900490600052602060002090601f016020900481019282601f106109c657805160ff19168380011785556109f4565b828001600101855582156109f4579182015b828111156109f35782518255916020019190600101906109d8565b5b509050610a019190610a05565b5090565b610a2791905b80821115610a23576000816000905550600101610a0b565b5090565b9056fea165627a7a72305820812135d609490262baf7c677910ebb953191fc94db88ee507f6d85695b96bf1d0029",
  "source": "pragma solidity ^0.5.0;\n\ncontract Vote {\n\n    string public testString = \"Im here for testing, leave me be!\";\n    // please do not remove testString\n\n    struct Election {\n        address creator;\n        string electionName;\n        uint voteCount;\n        uint expirationTime;\n        uint candidatesCount;\n        mapping(address => Voter) votersInfo;\n        mapping(uint => Candidate) candidates;\n    }\n\n    uint public electionCount;\n    mapping(uint => Election) public elections;\n\n    function startElection(address _creator, string memory _electionName, uint _voteLength) public {\n\n        electionCount++;\n        \n        // input vote length\n        // set Timer returning expiration time\n        uint expirationTime = setTimer(_voteLength);\n        // initiating a new Election with the final expiration time\n        elections[electionCount] = Election(_creator, _electionName, 0, expirationTime, 0);\n    }\n\n    struct Candidate  {\n        uint id;\n        string name;\n        uint voteCount;\n    }\n\n    struct Voter {\n        address name;\n        bool hasVoted;\n    }\n\n    uint public voterCount;\n    uint public candidatesCount;\n\n    function addElectionCandidate(uint _electionId, string memory _candidateName) public {\n        Election storage e = elections[_electionId];\n        e.candidates[e.candidatesCount++] = Candidate(e.candidatesCount, _candidateName, 0);\n    }\n\n\n    function showElectionCandidates(uint _electionId) public returns (string memory name){\n        return elections[_electionId].candidates[1].name;\n    }\n\n    // ROS AND BEVS TIMER FUNCTION\n    // FROM HERE\n    function setTimer(uint _voteLength) public returns (uint) {\n        uint StartTime = block.timestamp;\n        return StartTime + _voteLength;\n    }\n    // TO HERE \n\n    constructor () public {\n    }\n}",
  "sourcePath": "/home/bev/Documents/WebDev/Northcoders/Project/SmartVote/contracts/Vote.sol",
  "compiler": {
    "name": "solc",
    "version": "0.5.0+commit.1d4f565a.Emscripten.clang"
  },
  "schemaVersion": "3.0.1",
  "updatedAt": "2019-01-11T11:52:24.836Z",
  "devdoc": {
    "methods": {}
  },
  "userdoc": {
    "methods": {}
  }
}