{
  "contractName": "Vote",
  "abi": [
    {
      "constant": false,
      "inputs": [
        {
          "name": "spender",
          "type": "address"
        },
        {
          "name": "value",
          "type": "uint256"
        }
      ],
      "name": "approve",
      "outputs": [
        {
          "name": "",
          "type": "bool"
        }
      ],
      "payable": false,
      "stateMutability": "nonpayable",
      "type": "function",
      "signature": "0x095ea7b3"
    },
    {
      "constant": true,
      "inputs": [],
      "name": "totalSupply",
      "outputs": [
        {
          "name": "",
          "type": "uint256"
        }
      ],
      "payable": false,
      "stateMutability": "view",
      "type": "function",
      "signature": "0x18160ddd"
    },
    {
      "constant": false,
      "inputs": [
        {
          "name": "from",
          "type": "address"
        },
        {
          "name": "to",
          "type": "address"
        },
        {
          "name": "value",
          "type": "uint256"
        }
      ],
      "name": "transferFrom",
      "outputs": [
        {
          "name": "",
          "type": "bool"
        }
      ],
      "payable": false,
      "stateMutability": "nonpayable",
      "type": "function",
      "signature": "0x23b872dd"
    },
    {
      "constant": false,
      "inputs": [
        {
          "name": "spender",
          "type": "address"
        },
        {
          "name": "addedValue",
          "type": "uint256"
        }
      ],
      "name": "increaseAllowance",
      "outputs": [
        {
          "name": "",
          "type": "bool"
        }
      ],
      "payable": false,
      "stateMutability": "nonpayable",
      "type": "function",
      "signature": "0x39509351"
    },
    {
      "constant": true,
      "inputs": [],
      "name": "smokeTest",
      "outputs": [
        {
          "name": "",
          "type": "string"
        }
      ],
      "payable": false,
      "stateMutability": "view",
      "type": "function",
      "signature": "0x3a81e5ff"
    },
    {
      "constant": true,
      "inputs": [
        {
          "name": "",
          "type": "uint256"
        }
      ],
      "name": "elections",
      "outputs": [
        {
          "name": "creator",
          "type": "address"
        },
        {
          "name": "electionName",
          "type": "string"
        },
        {
          "name": "expirationTime",
          "type": "uint256"
        },
        {
          "name": "candidatesCount",
          "type": "uint256"
        }
      ],
      "payable": false,
      "stateMutability": "view",
      "type": "function",
      "signature": "0x5e6fef01"
    },
    {
      "constant": true,
      "inputs": [
        {
          "name": "owner",
          "type": "address"
        }
      ],
      "name": "balanceOf",
      "outputs": [
        {
          "name": "",
          "type": "uint256"
        }
      ],
      "payable": false,
      "stateMutability": "view",
      "type": "function",
      "signature": "0x70a08231"
    },
    {
      "constant": true,
      "inputs": [],
      "name": "electionCount",
      "outputs": [
        {
          "name": "",
          "type": "uint256"
        }
      ],
      "payable": false,
      "stateMutability": "view",
      "type": "function",
      "signature": "0x997d2830"
    },
    {
      "constant": false,
      "inputs": [
        {
          "name": "spender",
          "type": "address"
        },
        {
          "name": "subtractedValue",
          "type": "uint256"
        }
      ],
      "name": "decreaseAllowance",
      "outputs": [
        {
          "name": "",
          "type": "bool"
        }
      ],
      "payable": false,
      "stateMutability": "nonpayable",
      "type": "function",
      "signature": "0xa457c2d7"
    },
    {
      "constant": false,
      "inputs": [
        {
          "name": "to",
          "type": "address"
        },
        {
          "name": "value",
          "type": "uint256"
        }
      ],
      "name": "transfer",
      "outputs": [
        {
          "name": "",
          "type": "bool"
        }
      ],
      "payable": false,
      "stateMutability": "nonpayable",
      "type": "function",
      "signature": "0xa9059cbb"
    },
    {
      "constant": true,
      "inputs": [
        {
          "name": "owner",
          "type": "address"
        },
        {
          "name": "spender",
          "type": "address"
        }
      ],
      "name": "allowance",
      "outputs": [
        {
          "name": "",
          "type": "uint256"
        }
      ],
      "payable": false,
      "stateMutability": "view",
      "type": "function",
      "signature": "0xdd62ed3e"
    },
    {
      "inputs": [],
      "payable": false,
      "stateMutability": "nonpayable",
      "type": "constructor",
      "signature": "constructor"
    },
    {
      "anonymous": false,
      "inputs": [
        {
          "indexed": true,
          "name": "from",
          "type": "address"
        },
        {
          "indexed": true,
          "name": "to",
          "type": "address"
        },
        {
          "indexed": false,
          "name": "value",
          "type": "uint256"
        }
      ],
      "name": "Transfer",
      "type": "event",
      "signature": "0xddf252ad1be2c89b69c2b068fc378daa952ba7f163c4a11628f55a4df523b3ef"
    },
    {
      "anonymous": false,
      "inputs": [
        {
          "indexed": true,
          "name": "owner",
          "type": "address"
        },
        {
          "indexed": true,
          "name": "spender",
          "type": "address"
        },
        {
          "indexed": false,
          "name": "value",
          "type": "uint256"
        }
      ],
      "name": "Approval",
      "type": "event",
      "signature": "0x8c5be1e5ebec7d5bd14f71427d1e84f3dd0314c0f7b2291e5b200ac8c7c3b925"
    },
    {
      "constant": false,
      "inputs": [
        {
          "name": "_electionName",
          "type": "string"
        },
        {
          "name": "_expirationTime",
          "type": "uint256"
        },
        {
          "name": "newCandidates",
          "type": "bytes32[]"
        },
        {
          "name": "_whiteList",
          "type": "address[]"
        }
      ],
      "name": "startElection",
      "outputs": [],
      "payable": false,
      "stateMutability": "nonpayable",
      "type": "function",
      "signature": "0xf31fe250"
    },
    {
      "constant": true,
      "inputs": [
        {
          "name": "i",
          "type": "uint256"
        }
      ],
      "name": "getElectionCandidates",
      "outputs": [
        {
          "name": "",
          "type": "bytes32[]"
        }
      ],
      "payable": false,
      "stateMutability": "view",
      "type": "function",
      "signature": "0x5e12845e"
    },
    {
      "constant": true,
      "inputs": [
        {
          "name": "i",
          "type": "uint256"
        }
      ],
      "name": "getWhiteList",
      "outputs": [
        {
          "name": "",
          "type": "address[]"
        }
      ],
      "payable": false,
      "stateMutability": "view",
      "type": "function",
      "signature": "0xaa44a6b5"
    },
    {
      "constant": true,
      "inputs": [
        {
          "name": "_name",
          "type": "bytes32"
        }
      ],
      "name": "getCandidate",
      "outputs": [
        {
          "name": "",
          "type": "uint256"
        },
        {
          "name": "",
          "type": "bytes32"
        },
        {
          "name": "",
          "type": "uint256"
        }
      ],
      "payable": false,
      "stateMutability": "view",
      "type": "function",
      "signature": "0xdfb6419f"
    },
    {
      "constant": false,
      "inputs": [
        {
          "name": "_name",
          "type": "bytes32"
        },
        {
          "name": "_electionCount",
          "type": "uint256"
        }
      ],
      "name": "voteForCandidate",
      "outputs": [
        {
          "name": "",
          "type": "uint256"
        },
        {
          "name": "",
          "type": "bytes32"
        },
        {
          "name": "",
          "type": "uint256"
        }
      ],
      "payable": false,
      "stateMutability": "nonpayable",
      "type": "function",
      "signature": "0x6b2dc6b5"
    },
    {
      "constant": true,
      "inputs": [
        {
          "name": "_voteLength",
          "type": "uint256"
        }
      ],
      "name": "setTimer",
      "outputs": [
        {
          "name": "",
          "type": "uint256"
        }
      ],
      "payable": false,
      "stateMutability": "view",
      "type": "function",
      "signature": "0xb976bd17"
    },
    {
      "constant": false,
      "inputs": [
        {
          "name": "_tokens",
          "type": "uint256"
        }
      ],
      "name": "mint",
      "outputs": [],
      "payable": false,
      "stateMutability": "nonpayable",
      "type": "function",
      "signature": "0xa0712d68"
    },
    {
      "constant": false,
      "inputs": [
        {
          "name": "_voter",
          "type": "address"
        }
      ],
      "name": "distributeToken",
      "outputs": [],
      "payable": false,
      "stateMutability": "nonpayable",
      "type": "function",
      "signature": "0x86d74037"
    }
  ],
  "bytecode": "0x60806040526040805190810160405280600981526020017f736d6f6b65546573740000000000000000000000000000000000000000000000815250600390805190602001906200005192919062000066565b503480156200005f57600080fd5b5062000115565b828054600181600116156101000203166002900490600052602060002090601f016020900481019282601f10620000a957805160ff1916838001178555620000da565b82800160010185558215620000da579182015b82811115620000d9578251825591602001919060010190620000bc565b5b509050620000e99190620000ed565b5090565b6200011291905b808211156200010e576000816000905550600101620000f4565b5090565b90565b61211280620001256000396000f3fe608060405260043610610107576000357c0100000000000000000000000000000000000000000000000000000000900463ffffffff168063095ea7b31461010c57806318160ddd1461017f57806323b872dd146101aa578063395093511461023d5780633a81e5ff146102b05780635e12845e146103405780635e6fef01146103d05780636b2dc6b5146104c557806370a082311461052c57806386d7403714610591578063997d2830146105e2578063a0712d681461060d578063a457c2d714610648578063a9059cbb146106bb578063aa44a6b51461072e578063b976bd17146107be578063dd62ed3e1461080d578063dfb6419f14610892578063f31fe250146108ef575b600080fd5b34801561011857600080fd5b506101656004803603604081101561012f57600080fd5b81019080803573ffffffffffffffffffffffffffffffffffffffff16906020019092919080359060200190929190505050610ae9565b604051808215151515815260200191505060405180910390f35b34801561018b57600080fd5b50610194610c16565b6040518082815260200191505060405180910390f35b3480156101b657600080fd5b50610223600480360360608110156101cd57600080fd5b81019080803573ffffffffffffffffffffffffffffffffffffffff169060200190929190803573ffffffffffffffffffffffffffffffffffffffff16906020019092919080359060200190929190505050610c20565b604051808215151515815260200191505060405180910390f35b34801561024957600080fd5b506102966004803603604081101561026057600080fd5b81019080803573ffffffffffffffffffffffffffffffffffffffff16906020019092919080359060200190929190505050610e28565b604051808215151515815260200191505060405180910390f35b3480156102bc57600080fd5b506102c561105f565b6040518080602001828103825283818151815260200191508051906020019080838360005b838110156103055780820151818401526020810190506102ea565b50505050905090810190601f1680156103325780820380516001836020036101000a031916815260200191505b509250505060405180910390f35b34801561034c57600080fd5b506103796004803603602081101561036357600080fd5b81019080803590602001909291905050506110fd565b6040518080602001828103825283818151815260200191508051906020019060200280838360005b838110156103bc5780820151818401526020810190506103a1565b505050509050019250505060405180910390f35b3480156103dc57600080fd5b50610409600480360360208110156103f357600080fd5b810190808035906020019092919050505061116b565b604051808573ffffffffffffffffffffffffffffffffffffffff1673ffffffffffffffffffffffffffffffffffffffff16815260200180602001848152602001838152602001828103825285818151815260200191508051906020019080838360005b8381101561048757808201518184015260208101905061046c565b50505050905090810190601f1680156104b45780820380516001836020036101000a031916815260200191505b509550505050505060405180910390f35b3480156104d157600080fd5b50610508600480360360408110156104e857600080fd5b810190808035906020019092919080359060200190929190505050611253565b60405180848152602001838152602001828152602001935050505060405180910390f35b34801561053857600080fd5b5061057b6004803603602081101561054f57600080fd5b81019080803573ffffffffffffffffffffffffffffffffffffffff1690602001909291905050506113a1565b6040518082815260200191505060405180910390f35b34801561059d57600080fd5b506105e0600480360360208110156105b457600080fd5b81019080803573ffffffffffffffffffffffffffffffffffffffff1690602001909291905050506113e9565b005b3480156105ee57600080fd5b506105f7611404565b6040518082815260200191505060405180910390f35b34801561061957600080fd5b506106466004803603602081101561063057600080fd5b810190808035906020019092919050505061140a565b005b34801561065457600080fd5b506106a16004803603604081101561066b57600080fd5b81019080803573ffffffffffffffffffffffffffffffffffffffff16906020019092919080359060200190929190505050611417565b604051808215151515815260200191505060405180910390f35b3480156106c757600080fd5b50610714600480360360408110156106de57600080fd5b81019080803573ffffffffffffffffffffffffffffffffffffffff1690602001909291908035906020019092919050505061164e565b604051808215151515815260200191505060405180910390f35b34801561073a57600080fd5b506107676004803603602081101561075157600080fd5b8101908080359060200190929190505050611665565b6040518080602001828103825283818151815260200191508051906020019060200280838360005b838110156107aa57808201518184015260208101905061078f565b505050509050019250505060405180910390f35b3480156107ca57600080fd5b506107f7600480360360208110156107e157600080fd5b8101908080359060200190929190505050611709565b6040518082815260200191505060405180910390f35b34801561081957600080fd5b5061087c6004803603604081101561083057600080fd5b81019080803573ffffffffffffffffffffffffffffffffffffffff169060200190929190803573ffffffffffffffffffffffffffffffffffffffff16906020019092919050505061171a565b6040518082815260200191505060405180910390f35b34801561089e57600080fd5b506108cb600480360360208110156108b557600080fd5b81019080803590602001909291905050506117a1565b60405180848152602001838152602001828152602001935050505060405180910390f35b3480156108fb57600080fd5b50610ae76004803603608081101561091257600080fd5b810190808035906020019064010000000081111561092f57600080fd5b82018360208201111561094157600080fd5b8035906020019184600183028401116401000000008311171561096357600080fd5b91908080601f016020809104026020016040519081016040528093929190818152602001838380828437600081840152601f19601f82011690508083019250505050505050919291929080359060200190929190803590602001906401000000008111156109d057600080fd5b8201836020820111156109e257600080fd5b80359060200191846020830284011164010000000083111715610a0457600080fd5b919080806020026020016040519081016040528093929190818152602001838360200280828437600081840152601f19601f82011690508083019250505050505050919291929080359060200190640100000000811115610a6457600080fd5b820183602082011115610a7657600080fd5b80359060200191846020830284011164010000000083111715610a9857600080fd5b919080806020026020016040519081016040528093929190818152602001838360200280828437600081840152601f19601f8201169050808301925050505050505091929192905050506117f8565b005b60008073ffffffffffffffffffffffffffffffffffffffff168373ffffffffffffffffffffffffffffffffffffffff1614151515610b2657600080fd5b81600160003373ffffffffffffffffffffffffffffffffffffffff1673ffffffffffffffffffffffffffffffffffffffff16815260200190815260200160002060008573ffffffffffffffffffffffffffffffffffffffff1673ffffffffffffffffffffffffffffffffffffffff168152602001908152602001600020819055508273ffffffffffffffffffffffffffffffffffffffff163373ffffffffffffffffffffffffffffffffffffffff167f8c5be1e5ebec7d5bd14f71427d1e84f3dd0314c0f7b2291e5b200ac8c7c3b925846040518082815260200191505060405180910390a36001905092915050565b6000600254905090565b6000610cb182600160008773ffffffffffffffffffffffffffffffffffffffff1673ffffffffffffffffffffffffffffffffffffffff16815260200190815260200160002060003373ffffffffffffffffffffffffffffffffffffffff1673ffffffffffffffffffffffffffffffffffffffff16815260200190815260200160002054611b9f90919063ffffffff16565b600160008673ffffffffffffffffffffffffffffffffffffffff1673ffffffffffffffffffffffffffffffffffffffff16815260200190815260200160002060003373ffffffffffffffffffffffffffffffffffffffff1673ffffffffffffffffffffffffffffffffffffffff16815260200190815260200160002081905550610d3c848484611bc1565b3373ffffffffffffffffffffffffffffffffffffffff168473ffffffffffffffffffffffffffffffffffffffff167f8c5be1e5ebec7d5bd14f71427d1e84f3dd0314c0f7b2291e5b200ac8c7c3b925600160008873ffffffffffffffffffffffffffffffffffffffff1673ffffffffffffffffffffffffffffffffffffffff16815260200190815260200160002060003373ffffffffffffffffffffffffffffffffffffffff1673ffffffffffffffffffffffffffffffffffffffff168152602001908152602001600020546040518082815260200191505060405180910390a3600190509392505050565b60008073ffffffffffffffffffffffffffffffffffffffff168373ffffffffffffffffffffffffffffffffffffffff1614151515610e6557600080fd5b610ef482600160003373ffffffffffffffffffffffffffffffffffffffff1673ffffffffffffffffffffffffffffffffffffffff16815260200190815260200160002060008673ffffffffffffffffffffffffffffffffffffffff1673ffffffffffffffffffffffffffffffffffffffff16815260200190815260200160002054611d8d90919063ffffffff16565b600160003373ffffffffffffffffffffffffffffffffffffffff1673ffffffffffffffffffffffffffffffffffffffff16815260200190815260200160002060008573ffffffffffffffffffffffffffffffffffffffff1673ffffffffffffffffffffffffffffffffffffffff168152602001908152602001600020819055508273ffffffffffffffffffffffffffffffffffffffff163373ffffffffffffffffffffffffffffffffffffffff167f8c5be1e5ebec7d5bd14f71427d1e84f3dd0314c0f7b2291e5b200ac8c7c3b925600160003373ffffffffffffffffffffffffffffffffffffffff1673ffffffffffffffffffffffffffffffffffffffff16815260200190815260200160002060008773ffffffffffffffffffffffffffffffffffffffff1673ffffffffffffffffffffffffffffffffffffffff168152602001908152602001600020546040518082815260200191505060405180910390a36001905092915050565b60038054600181600116156101000203166002900480601f0160208091040260200160405190810160405280929190818152602001828054600181600116156101000203166002900480156110f55780601f106110ca576101008083540402835291602001916110f5565b820191906000526020600020905b8154815290600101906020018083116110d857829003601f168201915b505050505081565b60606005600083815260200190815260200160002060040180548060200260200160405190810160405280929190818152602001828054801561115f57602002820191906000526020600020905b81548152602001906001019080831161114b575b50505050509050919050565b60056020528060005260406000206000915090508060000160009054906101000a900473ffffffffffffffffffffffffffffffffffffffff1690806001018054600181600116156101000203166002900480601f01602080910402602001604051908101604052809291908181526020018280546001816001161561010002031660029004801561123d5780601f106112125761010080835404028352916020019161123d565b820191906000526020600020905b81548152906001019060200180831161122057829003601f168201915b5050505050908060020154908060030154905084565b6000806000606061126385611665565b905060008090505b8151811015611397573373ffffffffffffffffffffffffffffffffffffffff16828281518110151561129957fe5b9060200190602002015173ffffffffffffffffffffffffffffffffffffffff16141561138a576112ca336001610ae9565b5061130c6005600088815260200190815260200160002060000160009054906101000a900473ffffffffffffffffffffffffffffffffffffffff16600161164e565b1561138957600660008881526020019081526020016000206002016000815480929190600101919050555060066000888152602001908152602001600020600001546006600089815260200190815260200160002060010154600660008a815260200190815260200160002060020154945094509450505061139a565b5b808060010191505061126b565b50505b9250925092565b60008060008373ffffffffffffffffffffffffffffffffffffffff1673ffffffffffffffffffffffffffffffffffffffff168152602001908152602001600020549050919050565b6113f481600161164e565b50611400816000610ae9565b5050565b60045481565b6114143382611dae565b50565b60008073ffffffffffffffffffffffffffffffffffffffff168373ffffffffffffffffffffffffffffffffffffffff161415151561145457600080fd5b6114e382600160003373ffffffffffffffffffffffffffffffffffffffff1673ffffffffffffffffffffffffffffffffffffffff16815260200190815260200160002060008673ffffffffffffffffffffffffffffffffffffffff1673ffffffffffffffffffffffffffffffffffffffff16815260200190815260200160002054611b9f90919063ffffffff16565b600160003373ffffffffffffffffffffffffffffffffffffffff1673ffffffffffffffffffffffffffffffffffffffff16815260200190815260200160002060008573ffffffffffffffffffffffffffffffffffffffff1673ffffffffffffffffffffffffffffffffffffffff168152602001908152602001600020819055508273ffffffffffffffffffffffffffffffffffffffff163373ffffffffffffffffffffffffffffffffffffffff167f8c5be1e5ebec7d5bd14f71427d1e84f3dd0314c0f7b2291e5b200ac8c7c3b925600160003373ffffffffffffffffffffffffffffffffffffffff1673ffffffffffffffffffffffffffffffffffffffff16815260200190815260200160002060008773ffffffffffffffffffffffffffffffffffffffff1673ffffffffffffffffffffffffffffffffffffffff168152602001908152602001600020546040518082815260200191505060405180910390a36001905092915050565b600061165b338484611bc1565b6001905092915050565b6060600560008381526020019081526020016000206005018054806020026020016040519081016040528092919081815260200182805480156116fd57602002820191906000526020600020905b8160009054906101000a900473ffffffffffffffffffffffffffffffffffffffff1673ffffffffffffffffffffffffffffffffffffffff16815260200190600101908083116116b3575b50505050509050919050565b600080429050828101915050919050565b6000600160008473ffffffffffffffffffffffffffffffffffffffff1673ffffffffffffffffffffffffffffffffffffffff16815260200190815260200160002060008373ffffffffffffffffffffffffffffffffffffffff1673ffffffffffffffffffffffffffffffffffffffff16815260200190815260200160002054905092915050565b60008060006006600085815260200190815260200160002060000154600660008681526020019081526020016000206001015460066000878152602001908152602001600020600201549250925092509193909250565b600460008154809291906001019190505550600061181584611709565b9050611821825161140a565b60c0604051908101604052803373ffffffffffffffffffffffffffffffffffffffff16815260200186815260200160008152602001828152602001600060405190808252806020026020018201604052801561188c5781602001602082028038833980820191505090505b50815260200160006040519080825280602002602001820160405280156118c25781602001602082028038833980820191505090505b5081525060056000600454815260200190815260200160002060008201518160000160006101000a81548173ffffffffffffffffffffffffffffffffffffffff021916908373ffffffffffffffffffffffffffffffffffffffff160217905550602082015181600101908051906020019061193e929190611f02565b506040820151816002015560608201518160030155608082015181600401908051906020019061196f929190611f82565b5060a082015181600501908051906020019061198c929190611fcf565b5090505060008090505b8351811015611ac757600784828151811015156119af57fe5b9060200190602002015190806001815401808255809150509060018203906000526020600020016000909192909190915055506060604051908101604052808281526020018583815181101515611a0257fe5b9060200190602002015181526020016000815250600660008684815181101515611a2857fe5b9060200190602002015181526020019081526020016000206000820151816000015560208201518160010155604082015181600201559050506005600060045481526020019081526020016000206004018482815181101515611a8757fe5b9060200190602002015190806001815401808255809150509060018203906000526020600020016000909192909190915055508080600101915050611996565b5060008090505b8251811015611b97576005600060045481526020019081526020016000206005018382815181101515611afd57fe5b9060200190602002015190806001815401808255809150509060018203906000526020600020016000909192909190916101000a81548173ffffffffffffffffffffffffffffffffffffffff021916908373ffffffffffffffffffffffffffffffffffffffff16021790555050611b8a8382815181101515611b7b57fe5b906020019060200201516113e9565b8080600101915050611ace565b505050505050565b6000828211151515611bb057600080fd5b600082840390508091505092915050565b600073ffffffffffffffffffffffffffffffffffffffff168273ffffffffffffffffffffffffffffffffffffffff1614151515611bfd57600080fd5b611c4e816000808673ffffffffffffffffffffffffffffffffffffffff1673ffffffffffffffffffffffffffffffffffffffff16815260200190815260200160002054611b9f90919063ffffffff16565b6000808573ffffffffffffffffffffffffffffffffffffffff1673ffffffffffffffffffffffffffffffffffffffff16815260200190815260200160002081905550611ce1816000808573ffffffffffffffffffffffffffffffffffffffff1673ffffffffffffffffffffffffffffffffffffffff16815260200190815260200160002054611d8d90919063ffffffff16565b6000808473ffffffffffffffffffffffffffffffffffffffff1673ffffffffffffffffffffffffffffffffffffffff168152602001908152602001600020819055508173ffffffffffffffffffffffffffffffffffffffff168373ffffffffffffffffffffffffffffffffffffffff167fddf252ad1be2c89b69c2b068fc378daa952ba7f163c4a11628f55a4df523b3ef836040518082815260200191505060405180910390a3505050565b6000808284019050838110151515611da457600080fd5b8091505092915050565b600073ffffffffffffffffffffffffffffffffffffffff168273ffffffffffffffffffffffffffffffffffffffff1614151515611dea57600080fd5b611dff81600254611d8d90919063ffffffff16565b600281905550611e56816000808573ffffffffffffffffffffffffffffffffffffffff1673ffffffffffffffffffffffffffffffffffffffff16815260200190815260200160002054611d8d90919063ffffffff16565b6000808473ffffffffffffffffffffffffffffffffffffffff1673ffffffffffffffffffffffffffffffffffffffff168152602001908152602001600020819055508173ffffffffffffffffffffffffffffffffffffffff16600073ffffffffffffffffffffffffffffffffffffffff167fddf252ad1be2c89b69c2b068fc378daa952ba7f163c4a11628f55a4df523b3ef836040518082815260200191505060405180910390a35050565b828054600181600116156101000203166002900490600052602060002090601f016020900481019282601f10611f4357805160ff1916838001178555611f71565b82800160010185558215611f71579182015b82811115611f70578251825591602001919060010190611f55565b5b509050611f7e9190612059565b5090565b828054828255906000526020600020908101928215611fbe579160200282015b82811115611fbd578251825591602001919060010190611fa2565b5b509050611fcb919061207e565b5090565b828054828255906000526020600020908101928215612048579160200282015b828111156120475782518260006101000a81548173ffffffffffffffffffffffffffffffffffffffff021916908373ffffffffffffffffffffffffffffffffffffffff16021790555091602001919060010190611fef565b5b50905061205591906120a3565b5090565b61207b91905b8082111561207757600081600090555060010161205f565b5090565b90565b6120a091905b8082111561209c576000816000905550600101612084565b5090565b90565b6120e391905b808211156120df57600081816101000a81549073ffffffffffffffffffffffffffffffffffffffff0219169055506001016120a9565b5090565b9056fea165627a7a723058206ff9cbfe7e011983c5781071b4d668c2e8a9bda83467ecea3141800cd7597ef30029",
  "source": "pragma solidity ^0.5.0;\n\nimport \"../node_modules/openzeppelin-solidity/contracts/token/ERC20/ERC20.sol\";\n\ncontract Vote is ERC20 {\n\n    string public smokeTest = \"smokeTest\";\n\n    struct Election {\n        address creator;\n        string electionName;\n        uint expirationTime;\n        uint candidatesCount;\n        bytes32[] candidateData;\n        address[] whiteList;\n    }\n\n    uint public electionCount;\n    mapping(uint => Election) public elections;\n    mapping(bytes32 => Candidate) candidateStorage;\n    bytes32[] candidateNames;\n\n    function startElection(string memory _electionName, uint _expirationTime, bytes32[] memory newCandidates, address[] memory _whiteList) public {\n        electionCount++;\n        uint _voteLength = setTimer(_expirationTime);\n        mint(_whiteList.length);\n        elections[electionCount] = Election(msg.sender, _electionName, 0, _voteLength, new bytes32[](0), new address[](0));\n        for (uint i = 0; i < newCandidates.length; i++) {\n            candidateNames.push(newCandidates[i]);\n            candidateStorage[newCandidates[i]] = Candidate(\n                i,\n                newCandidates[i],\n                0\n            );\n            elections[electionCount].candidateData.push(newCandidates[i]);\n        }\n        for (uint j = 0; j < _whiteList.length ; j++){\n            elections[electionCount].whiteList.push(_whiteList[j]);\n            distributeToken(_whiteList[j]);\n        }\n    }\n\n    function getElectionCandidates(uint i) public view returns (bytes32[] memory){\n        return elections[i].candidateData;\n    }\n\n    function getWhiteList(uint i) public view returns (address[] memory){\n        return elections[i].whiteList;\n    }\n\n    function getCandidate(bytes32 _name) public view returns (uint, bytes32, uint) {\n        return (candidateStorage[_name].id, candidateStorage[_name].name, candidateStorage[_name].voteCount);\n    }\n\n    function voteForCandidate(bytes32 _name, uint _electionCount) public returns (uint, bytes32, uint) {\n        address[] memory array = getWhiteList(_electionCount);\n        for (uint i = 0; i < array.length ; i++) {\n            if(array[i] == msg.sender) {\n                approve(msg.sender, 1);\n                if(transfer(elections[_electionCount].creator, 1)) {\n                    candidateStorage[_name].voteCount++;\n                    return (candidateStorage[_name].id, candidateStorage[_name].name, candidateStorage[_name].voteCount);\n                }\n                }\n            }\n    }\n\n    struct Candidate  {\n        uint id;\n        bytes32 name;\n        uint voteCount;\n    }\n\n    function setTimer(uint _voteLength) public view returns (uint) {\n        uint StartTime = block.timestamp;\n        return StartTime + _voteLength;\n    }\n\n    constructor () public {\n    }\n    \n    function mint(uint _tokens) public {\n        _mint(msg.sender, _tokens);\n    }\n\n    function distributeToken(address _voter) public {\n        transfer(_voter, 1);\n        approve(_voter, 0);\n    }\n}",
  "sourcePath": "/home/brydie/SmartVote/contracts/Vote.sol",
  "compiler": {
    "name": "solc",
    "version": "0.5.0+commit.1d4f565a.Emscripten.clang"
  },
  "schemaVersion": "3.0.1",
  "updatedAt": "2019-01-15T14:53:46.182Z",
  "devdoc": {
    "methods": {
      "allowance(address,address)": {
        "details": "Function to check the amount of tokens that an owner allowed to a spender.",
        "params": {
          "owner": "address The address which owns the funds.",
          "spender": "address The address which will spend the funds."
        },
        "return": "A uint256 specifying the amount of tokens still available for the spender."
      },
      "approve(address,uint256)": {
        "details": "Approve the passed address to spend the specified amount of tokens on behalf of msg.sender. Beware that changing an allowance with this method brings the risk that someone may use both the old and the new allowance by unfortunate transaction ordering. One possible solution to mitigate this race condition is to first reduce the spender's allowance to 0 and set the desired value afterwards: https://github.com/ethereum/EIPs/issues/20#issuecomment-263524729",
        "params": {
          "spender": "The address which will spend the funds.",
          "value": "The amount of tokens to be spent."
        }
      },
      "balanceOf(address)": {
        "details": "Gets the balance of the specified address.",
        "params": {
          "owner": "The address to query the balance of."
        },
        "return": "An uint256 representing the amount owned by the passed address."
      },
      "decreaseAllowance(address,uint256)": {
        "details": "Decrease the amount of tokens that an owner allowed to a spender. approve should be called when allowed_[_spender] == 0. To decrement allowed value is better to use this function to avoid 2 calls (and wait until the first transaction is mined) From MonolithDAO Token.sol Emits an Approval event.",
        "params": {
          "spender": "The address which will spend the funds.",
          "subtractedValue": "The amount of tokens to decrease the allowance by."
        }
      },
      "increaseAllowance(address,uint256)": {
        "details": "Increase the amount of tokens that an owner allowed to a spender. approve should be called when allowed_[_spender] == 0. To increment allowed value is better to use this function to avoid 2 calls (and wait until the first transaction is mined) From MonolithDAO Token.sol Emits an Approval event.",
        "params": {
          "addedValue": "The amount of tokens to increase the allowance by.",
          "spender": "The address which will spend the funds."
        }
      },
      "totalSupply()": {
        "details": "Total number of tokens in existence"
      },
      "transfer(address,uint256)": {
        "details": "Transfer token for a specified address",
        "params": {
          "to": "The address to transfer to.",
          "value": "The amount to be transferred."
        }
      },
      "transferFrom(address,address,uint256)": {
        "details": "Transfer tokens from one address to another. Note that while this function emits an Approval event, this is not required as per the specification, and other compliant implementations may not emit the event.",
        "params": {
          "from": "address The address which you want to send tokens from",
          "to": "address The address which you want to transfer to",
          "value": "uint256 the amount of tokens to be transferred"
        }
      }
    }
  },
  "userdoc": {
    "methods": {}
  }
}