{
  "contractName": "Vote",
  "abi": [
    {
      "constant": true,
      "inputs": [],
      "name": "candidatesCount",
      "outputs": [
        {
          "name": "",
          "type": "uint256"
        }
      ],
      "payable": false,
      "stateMutability": "view",
      "type": "function",
      "signature": "0x2d35a8a2"
    },
    {
      "constant": true,
      "inputs": [],
      "name": "voterCount",
      "outputs": [
        {
          "name": "",
          "type": "uint256"
        }
      ],
      "payable": false,
      "stateMutability": "view",
      "type": "function",
      "signature": "0x42169e48"
    },
    {
      "constant": true,
      "inputs": [
        {
          "name": "",
          "type": "uint256"
        }
      ],
      "name": "elections",
      "outputs": [
        {
          "name": "creator",
          "type": "address"
        },
        {
          "name": "electionName",
          "type": "string"
        },
        {
          "name": "voteCount",
          "type": "uint256"
        },
        {
          "name": "expirationTime",
          "type": "uint256"
        },
        {
          "name": "candidatesCount",
          "type": "uint256"
        }
      ],
      "payable": false,
      "stateMutability": "view",
      "type": "function",
      "signature": "0x5e6fef01"
    },
    {
      "constant": true,
      "inputs": [],
      "name": "electionCount",
      "outputs": [
        {
          "name": "",
          "type": "uint256"
        }
      ],
      "payable": false,
      "stateMutability": "view",
      "type": "function",
      "signature": "0x997d2830"
    },
    {
      "constant": true,
      "inputs": [],
      "name": "testString",
      "outputs": [
        {
          "name": "",
          "type": "string"
        }
      ],
      "payable": false,
      "stateMutability": "view",
      "type": "function",
      "signature": "0xfb8f0f59"
    },
    {
      "inputs": [],
      "payable": false,
      "stateMutability": "nonpayable",
      "type": "constructor",
      "signature": "constructor"
    },
    {
      "anonymous": false,
      "inputs": [
        {
          "indexed": false,
          "name": "id",
          "type": "uint256"
        },
        {
          "indexed": false,
          "name": "voteCount",
          "type": "uint256"
        }
      ],
      "name": "VoteTracker",
      "type": "event",
      "signature": "0xc0b8fc47de070a719582cac5399ced6ee5db0f90271294dfc5cc1e6e5f15cd19"
    },
    {
      "constant": false,
      "inputs": [
        {
          "name": "_creator",
          "type": "address"
        },
        {
          "name": "_electionName",
          "type": "string"
        },
        {
          "name": "_expirationTime",
          "type": "uint256"
        }
      ],
      "name": "startElection",
      "outputs": [],
      "payable": false,
      "stateMutability": "nonpayable",
      "type": "function",
      "signature": "0x6d1dfe3b"
    },
    {
      "constant": false,
      "inputs": [
        {
          "name": "_electionId",
          "type": "uint256"
        },
        {
          "name": "_candidateName",
          "type": "string"
        }
      ],
      "name": "addElectionCandidate",
      "outputs": [],
      "payable": false,
      "stateMutability": "nonpayable",
      "type": "function",
      "signature": "0x96f664fa"
    }
  ],
  "bytecode": "0x6080604052606060405190810160405280602181526020017f496d206865726520666f722074657374696e672c206c65617665206d6520626581526020017f210000000000000000000000000000000000000000000000000000000000000081525060009080519060200190610076929190610089565b5034801561008357600080fd5b5061012e565b828054600181600116156101000203166002900490600052602060002090601f016020900481019282601f106100ca57805160ff19168380011785556100f8565b828001600101855582156100f8579182015b828111156100f75782518255916020019190600101906100dc565b5b5090506101059190610109565b5090565b61012b91905b8082111561012757600081600090555060010161010f565b5090565b90565b61098c8061013d6000396000f3fe608060405260043610610083576000357c0100000000000000000000000000000000000000000000000000000000900463ffffffff1680632d35a8a21461008857806342169e48146100b35780635e6fef01146100de5780636d1dfe3b146101da57806396f664fa146102cc578063997d28301461039e578063fb8f0f59146103c9575b600080fd5b34801561009457600080fd5b5061009d610459565b6040518082815260200191505060405180910390f35b3480156100bf57600080fd5b506100c861045f565b6040518082815260200191505060405180910390f35b3480156100ea57600080fd5b506101176004803603602081101561010157600080fd5b8101908080359060200190929190505050610465565b604051808673ffffffffffffffffffffffffffffffffffffffff1673ffffffffffffffffffffffffffffffffffffffff16815260200180602001858152602001848152602001838152602001828103825286818151815260200191508051906020019080838360005b8381101561019b578082015181840152602081019050610180565b50505050905090810190601f1680156101c85780820380516001836020036101000a031916815260200191505b50965050505050505060405180910390f35b3480156101e657600080fd5b506102ca600480360360608110156101fd57600080fd5b81019080803573ffffffffffffffffffffffffffffffffffffffff1690602001909291908035906020019064010000000081111561023a57600080fd5b82018360208201111561024c57600080fd5b8035906020019184600183028401116401000000008311171561026e57600080fd5b91908080601f016020809104026020016040519081016040528093929190818152602001838380828437600081840152601f19601f82011690508083019250505050505050919291929080359060200190929190505050610553565b005b3480156102d857600080fd5b5061039c600480360360408110156102ef57600080fd5b81019080803590602001909291908035906020019064010000000081111561031657600080fd5b82018360208201111561032857600080fd5b8035906020019184600183028401116401000000008311171561034a57600080fd5b91908080601f016020809104026020016040519081016040528093929190818152602001838380828437600081840152601f19601f82011690508083019250505050505050919291929050505061066a565b005b3480156103aa57600080fd5b506103b3610728565b6040518082815260200191505060405180910390f35b3480156103d557600080fd5b506103de61072e565b6040518080602001828103825283818151815260200191508051906020019080838360005b8381101561041e578082015181840152602081019050610403565b50505050905090810190601f16801561044b5780820380516001836020036101000a031916815260200191505b509250505060405180910390f35b60045481565b60035481565b60026020528060005260406000206000915090508060000160009054906101000a900473ffffffffffffffffffffffffffffffffffffffff1690806001018054600181600116156101000203166002900480601f0160208091040260200160405190810160405280929190818152602001828054600181600116156101000203166002900480156105375780601f1061050c57610100808354040283529160200191610537565b820191906000526020600020905b81548152906001019060200180831161051a57829003601f168201915b5050505050908060020154908060040154908060050154905085565b600160008154809291906001019190505550606060c0604051908101604052808573ffffffffffffffffffffffffffffffffffffffff16815260200184815260200160008152602001828152602001838152602001600081525060026000600154815260200190815260200160002060008201518160000160006101000a81548173ffffffffffffffffffffffffffffffffffffffff021916908373ffffffffffffffffffffffffffffffffffffffff16021790555060208201518160010190805190602001906106259291906107cc565b5060408201518160020155606082015181600301908051906020019061064c92919061084c565b506080820151816004015560a0820151816005015590505050505050565b60026000838152602001908152602001600020600501600081548092919060010191905055506000600260008481526020019081526020016000206005015490506106b36108d6565b81816000018181525050828160200181905250806002600086815260200190815260200160002060070160008481526020019081526020016000206000820151816000015560208201518160010190805190602001906107149291906107cc565b506040820151816002015590505050505050565b60015481565b60008054600181600116156101000203166002900480601f0160208091040260200160405190810160405280929190818152602001828054600181600116156101000203166002900480156107c45780601f10610799576101008083540402835291602001916107c4565b820191906000526020600020905b8154815290600101906020018083116107a757829003601f168201915b505050505081565b828054600181600116156101000203166002900490600052602060002090601f016020900481019282601f1061080d57805160ff191683800117855561083b565b8280016001018555821561083b579182015b8281111561083a57825182559160200191906001019061081f565b5b50905061084891906108f8565b5090565b8280548282559060005260206000209081019282156108c5579160200282015b828111156108c45782518260006101000a81548173ffffffffffffffffffffffffffffffffffffffff021916908373ffffffffffffffffffffffffffffffffffffffff1602179055509160200191906001019061086c565b5b5090506108d2919061091d565b5090565b6060604051908101604052806000815260200160608152602001600081525090565b61091a91905b808211156109165760008160009055506001016108fe565b5090565b90565b61095d91905b8082111561095957600081816101000a81549073ffffffffffffffffffffffffffffffffffffffff021916905550600101610923565b5090565b9056fea165627a7a723058203097a665e0ac65ce83dcfda75503c33115ee7a0fef4d7b849a4b074eec7884fa0029",
  "source": "pragma solidity ^0.5.0;\n\ncontract Vote {\n\n    string public testString = \"Im here for testing, leave me be!\";\n    // please do not remove testString\n    uint public electionCount;\n    mapping(uint => Election) public elections;\n\n    struct Election {\n        address creator;\n        string electionName;\n        uint voteCount;\n        address[] voters;\n        uint expirationTime;\n        uint candidatesCount;\n        mapping(address => Voter) votersInfo;\n        mapping(uint => Candidate) candidates;\n    }\n\n    struct Candidate  {\n        uint id;\n        string name;\n        uint voteCount;\n    }\n\n    struct Voter {\n        address name;\n        bool hasVoted;\n    }\n\n    uint public voterCount;\n    uint public candidatesCount;\n\n    event VoteTracker(uint id, uint voteCount);\n\n    function startElection(address _creator, string memory _electionName, uint _expirationTime) public {\n        electionCount++;\n        address[] memory voters;\n        elections[electionCount] = Election(_creator, _electionName, 0, voters, _expirationTime, 0);\n    }\n\n    function addElectionCandidate(uint _electionId, string memory _candidateName) public {\n        elections[_electionId].candidatesCount++;\n        uint i = elections[_electionId].candidatesCount;\n        Candidate memory newCand;\n        newCand.id = i;\n        newCand.name = _candidateName;\n        elections[_electionId].candidates[i] = newCand;\n    }\n\n\n    // function addCandidate(string memory _name) public {\n    //     candidatesCount++;\n    //     candidates[candidatesCount] = Candidate(candidatesCount, _name, 0);\n    // }\n\n    // function incrementVote(uint _id, uint _inc) public {\n    //     candidates[_id].voteCount = candidates[_id].voteCount + _inc;\n    //     emit VoteTracker(_id, candidates[_id].voteCount);\n    // }\n\n    // function addVoter(address _name) public {\n    //     voterCount++;\n    //     voters[voterCount] = Voter(voterCount, _name, false);\n    // }\n\n    constructor () public {\n    }\n}",
  "sourcePath": "/Users/xav/Desktop/NorthCoders/project/SmartVote/contracts/Vote.sol",
  "compiler": {
    "name": "solc",
    "version": "0.5.0+commit.1d4f565a.Emscripten.clang"
  },
  "schemaVersion": "3.0.0",
  "updatedAt": "2019-01-10T20:23:26.905Z",
  "devdoc": {
    "methods": {}
  },
  "userdoc": {
    "methods": {}
  }
}