{
  "contractName": "Vote",
  "abi": [
    {
      "constant": true,
      "inputs": [],
      "name": "candidatesCount",
      "outputs": [
        {
          "name": "",
          "type": "uint256"
        }
      ],
      "payable": false,
      "stateMutability": "view",
      "type": "function",
      "signature": "0x2d35a8a2"
    },
    {
      "constant": true,
      "inputs": [],
      "name": "voterCount",
      "outputs": [
        {
          "name": "",
          "type": "uint256"
        }
      ],
      "payable": false,
      "stateMutability": "view",
      "type": "function",
      "signature": "0x42169e48"
    },
    {
      "constant": true,
      "inputs": [
        {
          "name": "",
          "type": "uint256"
        }
      ],
      "name": "elections",
      "outputs": [
        {
          "name": "creator",
          "type": "address"
        },
        {
          "name": "electionName",
          "type": "string"
        },
        {
          "name": "voteCount",
          "type": "uint256"
        },
        {
          "name": "expirationTime",
          "type": "uint256"
        },
        {
          "name": "candidatesCount",
          "type": "uint256"
        }
      ],
      "payable": false,
      "stateMutability": "view",
      "type": "function",
      "signature": "0x5e6fef01"
    },
    {
      "constant": true,
      "inputs": [],
      "name": "electionCount",
      "outputs": [
        {
          "name": "",
          "type": "uint256"
        }
      ],
      "payable": false,
      "stateMutability": "view",
      "type": "function",
      "signature": "0x997d2830"
    },
    {
      "constant": true,
      "inputs": [],
      "name": "testString",
      "outputs": [
        {
          "name": "",
          "type": "string"
        }
      ],
      "payable": false,
      "stateMutability": "view",
      "type": "function",
      "signature": "0xfb8f0f59"
    },
    {
      "inputs": [],
      "payable": false,
      "stateMutability": "nonpayable",
      "type": "constructor",
      "signature": "constructor"
    },
    {
      "constant": false,
      "inputs": [
        {
          "name": "_creator",
          "type": "address"
        },
        {
          "name": "_electionName",
          "type": "string"
        },
        {
          "name": "_expirationTime",
          "type": "uint256"
        }
      ],
      "name": "startElection",
      "outputs": [],
      "payable": false,
      "stateMutability": "nonpayable",
      "type": "function",
      "signature": "0x6d1dfe3b"
    },
    {
      "constant": false,
      "inputs": [
        {
          "name": "_electionId",
          "type": "uint256"
        },
        {
          "name": "_candidateName",
          "type": "string"
        }
      ],
      "name": "addElectionCandidate",
      "outputs": [],
      "payable": false,
      "stateMutability": "nonpayable",
      "type": "function",
      "signature": "0x96f664fa"
    },
    {
      "constant": false,
      "inputs": [
        {
          "name": "_electionId",
          "type": "uint256"
        }
      ],
      "name": "showElectionCandidates",
      "outputs": [
        {
          "name": "name",
          "type": "string"
        }
      ],
      "payable": false,
      "stateMutability": "nonpayable",
      "type": "function",
      "signature": "0x70d7e9c8"
    }
  ],
  "bytecode": "0x6080604052606060405190810160405280602181526020017f496d206865726520666f722074657374696e672c206c65617665206d6520626581526020017f210000000000000000000000000000000000000000000000000000000000000081525060009080519060200190610076929190610089565b5034801561008357600080fd5b5061012e565b828054600181600116156101000203166002900490600052602060002090601f016020900481019282601f106100ca57805160ff19168380011785556100f8565b828001600101855582156100f8579182015b828111156100f75782518255916020019190600101906100dc565b5b5090506101059190610109565b5090565b61012b91905b8082111561012757600081600090555060010161010f565b5090565b90565b6109dd8061013d6000396000f3fe60806040526004361061008e576000357c0100000000000000000000000000000000000000000000000000000000900463ffffffff1680632d35a8a21461009357806342169e48146100be5780635e6fef01146100e95780636d1dfe3b146101e557806370d7e9c8146102d757806396f664fa1461038b578063997d28301461045d578063fb8f0f5914610488575b600080fd5b34801561009f57600080fd5b506100a8610518565b6040518082815260200191505060405180910390f35b3480156100ca57600080fd5b506100d361051e565b6040518082815260200191505060405180910390f35b3480156100f557600080fd5b506101226004803603602081101561010c57600080fd5b8101908080359060200190929190505050610524565b604051808673ffffffffffffffffffffffffffffffffffffffff1673ffffffffffffffffffffffffffffffffffffffff16815260200180602001858152602001848152602001838152602001828103825286818151815260200191508051906020019080838360005b838110156101a657808201518184015260208101905061018b565b50505050905090810190601f1680156101d35780820380516001836020036101000a031916815260200191505b50965050505050505060405180910390f35b3480156101f157600080fd5b506102d56004803603606081101561020857600080fd5b81019080803573ffffffffffffffffffffffffffffffffffffffff1690602001909291908035906020019064010000000081111561024557600080fd5b82018360208201111561025757600080fd5b8035906020019184600183028401116401000000008311171561027957600080fd5b91908080601f016020809104026020016040519081016040528093929190818152602001838380828437600081840152601f19601f82011690508083019250505050505050919291929080359060200190929190505050610612565b005b3480156102e357600080fd5b50610310600480360360208110156102fa57600080fd5b8101908080359060200190929190505050610703565b6040518080602001828103825283818151815260200191508051906020019080838360005b83811015610350578082015181840152602081019050610335565b50505050905090810190601f16801561037d5780820380516001836020036101000a031916815260200191505b509250505060405180910390f35b34801561039757600080fd5b5061045b600480360360408110156103ae57600080fd5b8101908080359060200190929190803590602001906401000000008111156103d557600080fd5b8201836020820111156103e757600080fd5b8035906020019184600183028401116401000000008311171561040957600080fd5b91908080601f016020809104026020016040519081016040528093929190818152602001838380828437600081840152601f19601f8201169050808301925050505050505091929192905050506107d0565b005b34801561046957600080fd5b50610472610868565b6040518082815260200191505060405180910390f35b34801561049457600080fd5b5061049d61086e565b6040518080602001828103825283818151815260200191508051906020019080838360005b838110156104dd5780820151818401526020810190506104c2565b50505050905090810190601f16801561050a5780820380516001836020036101000a031916815260200191505b509250505060405180910390f35b60045481565b60035481565b60026020528060005260406000206000915090508060000160009054906101000a900473ffffffffffffffffffffffffffffffffffffffff1690806001018054600181600116156101000203166002900480601f0160208091040260200160405190810160405280929190818152602001828054600181600116156101000203166002900480156105f65780601f106105cb576101008083540402835291602001916105f6565b820191906000526020600020905b8154815290600101906020018083116105d957829003601f168201915b5050505050908060020154908060030154908060040154905085565b60016000815480929190600101919050555060a0604051908101604052808473ffffffffffffffffffffffffffffffffffffffff16815260200183815260200160008152602001828152602001600081525060026000600154815260200190815260200160002060008201518160000160006101000a81548173ffffffffffffffffffffffffffffffffffffffff021916908373ffffffffffffffffffffffffffffffffffffffff16021790555060208201518160010190805190602001906106dc92919061090c565b50604082015181600201556060820151816003015560808201518160040155905050505050565b6060600260008381526020019081526020016000206006016000600181526020019081526020016000206001018054600181600116156101000203166002900480601f0160208091040260200160405190810160405280929190818152602001828054600181600116156101000203166002900480156107c45780601f10610799576101008083540402835291602001916107c4565b820191906000526020600020905b8154815290600101906020018083116107a757829003601f168201915b50505050509050919050565b600060026000848152602001908152602001600020905060606040519081016040528082600401548152602001838152602001600081525081600601600083600401600081548092919060010191905055815260200190815260200160002060008201518160000155602082015181600101908051906020019061085592919061090c565b5060408201518160020155905050505050565b60015481565b60008054600181600116156101000203166002900480601f0160208091040260200160405190810160405280929190818152602001828054600181600116156101000203166002900480156109045780601f106108d957610100808354040283529160200191610904565b820191906000526020600020905b8154815290600101906020018083116108e757829003601f168201915b505050505081565b828054600181600116156101000203166002900490600052602060002090601f016020900481019282601f1061094d57805160ff191683800117855561097b565b8280016001018555821561097b579182015b8281111561097a57825182559160200191906001019061095f565b5b509050610988919061098c565b5090565b6109ae91905b808211156109aa576000816000905550600101610992565b5090565b9056fea165627a7a7230582083fac215920a3d002b824511270e2d059d29f82c0d925baeb786c9f075db13a90029",
  "source": "pragma solidity ^0.5.0;\n\ncontract Vote {\n\n    string public testString = \"Im here for testing, leave me be!\";\n    // please do not remove testString\n\n    struct Election {\n        address creator;\n        string electionName;\n        uint voteCount;\n        uint expirationTime;\n        uint candidatesCount;\n        mapping(address => Voter) votersInfo;\n        mapping(uint => Candidate) candidates;\n    }\n\n    uint public electionCount;\n    mapping(uint => Election) public elections;\n\n    function startElection(address _creator, string memory _electionName, uint _expirationTime) public {\n        electionCount++;\n        elections[electionCount] = Election(_creator, _electionName, 0, _expirationTime, 0);\n    }\n\n    struct Candidate  {\n        uint id;\n        string name;\n        uint voteCount;\n    }\n\n    struct Voter {\n        address name;\n        bool hasVoted;\n    }\n\n    uint public voterCount;\n    uint public candidatesCount;\n\n    function addElectionCandidate(uint _electionId, string memory _candidateName) public {\n        Election storage e = elections[_electionId];\n        e.candidates[e.candidatesCount++] = Candidate(e.candidatesCount, _candidateName, 0);\n    }\n\n    function showElectionCandidates(uint _electionId) public returns (string memory name){\n        return elections[_electionId].candidates[1].name;\n    }\n\n    constructor () public {\n    }\n}",
  "sourcePath": "/Users/xav/Desktop/NorthCoders/project/SmartVote/contracts/Vote.sol",
  "compiler": {
    "name": "solc",
    "version": "0.5.0+commit.1d4f565a.Emscripten.clang"
  },
  "schemaVersion": "3.0.0",
  "updatedAt": "2019-01-11T10:17:23.317Z",
  "devdoc": {
    "methods": {}
  },
  "userdoc": {
    "methods": {}
  }
}