{
  "contractName": "Vote",
  "abi": [
    {
      "constant": true,
      "inputs": [],
      "name": "candidatesCount",
      "outputs": [
        {
          "name": "",
          "type": "uint256"
        }
      ],
      "payable": false,
      "stateMutability": "view",
      "type": "function",
      "signature": "0x2d35a8a2"
    },
    {
      "constant": true,
      "inputs": [],
      "name": "voterCount",
      "outputs": [
        {
          "name": "",
          "type": "uint256"
        }
      ],
      "payable": false,
      "stateMutability": "view",
      "type": "function",
      "signature": "0x42169e48"
    },
    {
      "constant": true,
      "inputs": [
        {
          "name": "",
          "type": "uint256"
        }
      ],
      "name": "elections",
      "outputs": [
        {
          "name": "creator",
          "type": "address"
        },
        {
          "name": "electionName",
          "type": "string"
        },
        {
          "name": "voteCount",
          "type": "uint256"
        },
        {
          "name": "expirationTime",
          "type": "uint256"
        }
      ],
      "payable": false,
      "stateMutability": "view",
      "type": "function",
      "signature": "0x5e6fef01"
    },
    {
      "constant": true,
      "inputs": [],
      "name": "electionCount",
      "outputs": [
        {
          "name": "",
          "type": "uint256"
        }
      ],
      "payable": false,
      "stateMutability": "view",
      "type": "function",
      "signature": "0x997d2830"
    },
    {
      "inputs": [],
      "payable": false,
      "stateMutability": "nonpayable",
      "type": "constructor",
      "signature": "constructor"
    },
    {
      "anonymous": false,
      "inputs": [
        {
          "indexed": false,
          "name": "id",
          "type": "uint256"
        },
        {
          "indexed": false,
          "name": "voteCount",
          "type": "uint256"
        }
      ],
      "name": "VoteTracker",
      "type": "event",
      "signature": "0xc0b8fc47de070a719582cac5399ced6ee5db0f90271294dfc5cc1e6e5f15cd19"
    },
    {
      "constant": false,
      "inputs": [
        {
          "name": "_creator",
          "type": "address"
        },
        {
          "name": "_electionName",
          "type": "string"
        },
        {
          "name": "_expirationTime",
          "type": "uint256"
        }
      ],
      "name": "startElection",
      "outputs": [],
      "payable": false,
      "stateMutability": "nonpayable",
      "type": "function",
      "signature": "0x6d1dfe3b"
    }
  ],
  "bytecode": "0x6080604052602160015534801561001557600080fd5b5061069d806100256000396000f3fe60806040526004361061006d576000357c0100000000000000000000000000000000000000000000000000000000900463ffffffff1680632d35a8a21461007257806342169e481461009d5780635e6fef01146100c85780636d1dfe3b146101bd578063997d2830146102af575b600080fd5b34801561007e57600080fd5b506100876102da565b6040518082815260200191505060405180910390f35b3480156100a957600080fd5b506100b26102e0565b6040518082815260200191505060405180910390f35b3480156100d457600080fd5b50610101600480360360208110156100eb57600080fd5b81019080803590602001909291905050506102e6565b604051808573ffffffffffffffffffffffffffffffffffffffff1673ffffffffffffffffffffffffffffffffffffffff16815260200180602001848152602001838152602001828103825285818151815260200191508051906020019080838360005b8381101561017f578082015181840152602081019050610164565b50505050905090810190601f1680156101ac5780820380516001836020036101000a031916815260200191505b509550505050505060405180910390f35b3480156101c957600080fd5b506102ad600480360360608110156101e057600080fd5b81019080803573ffffffffffffffffffffffffffffffffffffffff1690602001909291908035906020019064010000000081111561021d57600080fd5b82018360208201111561022f57600080fd5b8035906020019184600183028401116401000000008311171561025157600080fd5b91908080601f016020809104026020016040519081016040528093929190818152602001838380828437600081840152601f19601f820116905080830192505050505050509192919290803590602001909291905050506103ce565b005b3480156102bb57600080fd5b506102c46104f9565b6040518082815260200191505060405180910390f35b60015481565b60005481565b60036020528060005260406000206000915090508060000160009054906101000a900473ffffffffffffffffffffffffffffffffffffffff1690806001018054600181600116156101000203166002900480601f0160208091040260200160405190810160405280929190818152602001828054600181600116156101000203166002900480156103b85780601f1061038d576101008083540402835291602001916103b8565b820191906000526020600020905b81548152906001019060200180831161039b57829003601f168201915b5050505050908060020154908060040154905084565b60026000815480929190600101919050555060608060c0604051908101604052808673ffffffffffffffffffffffffffffffffffffffff168152602001858152602001600081526020018381526020018481526020018281525060036000600254815260200190815260200160002060008201518160000160006101000a81548173ffffffffffffffffffffffffffffffffffffffff021916908373ffffffffffffffffffffffffffffffffffffffff16021790555060208201518160010190805190602001906104a09291906104ff565b506040820151816002015560608201518160030190805190602001906104c792919061057f565b506080820151816004015560a08201518160050190805190602001906104ee92919061057f565b509050505050505050565b60025481565b828054600181600116156101000203166002900490600052602060002090601f016020900481019282601f1061054057805160ff191683800117855561056e565b8280016001018555821561056e579182015b8281111561056d578251825591602001919060010190610552565b5b50905061057b9190610609565b5090565b8280548282559060005260206000209081019282156105f8579160200282015b828111156105f75782518260006101000a81548173ffffffffffffffffffffffffffffffffffffffff021916908373ffffffffffffffffffffffffffffffffffffffff1602179055509160200191906001019061059f565b5b509050610605919061062e565b5090565b61062b91905b8082111561062757600081600090555060010161060f565b5090565b90565b61066e91905b8082111561066a57600081816101000a81549073ffffffffffffffffffffffffffffffffffffffff021916905550600101610634565b5090565b9056fea165627a7a7230582051a6b79b89cebeebb0af8e33e2e1f16002683e4d2b41f008de37cfb93f322f190029",
  "source": "pragma solidity ^0.5.0;\n\ncontract Vote {\n\n    struct Election {\n        address creator;\n        string electionName;\n        uint voteCount;\n        address[] voters;\n        uint expirationTime;\n        address[] candidates;\n        mapping(address => Voter) votersInfo;\n        mapping(uint => Candidate) candidatesInfo;\n    }\n\n    struct Candidate {\n        uint id;\n        string name;\n        uint voteCount;\n    }\n\n    struct Voter {\n        address name;\n        bool hasVoted;\n    }\n\n    uint public voterCount;\n    uint public candidatesCount = 33;\n    uint public electionCount;\n\n    mapping(uint => Election) public elections;\n\n    event VoteTracker(uint id, uint voteCount);\n\n    function startElection(address _creator, string memory _electionName, uint _expirationTime) public {\n        electionCount++;\n        address[] memory voters;\n        address[] memory candidates;\n        elections[electionCount] = Election(_creator, _electionName, 0, voters, _expirationTime, candidates);\n    }\n\n    // function addCandidate(string memory _name) public {\n    //     candidatesCount++;\n    //     candidates[candidatesCount] = Candidate(candidatesCount, _name, 0);\n    // }\n\n    // function incrementVote(uint _id, uint _inc) public {\n    //     candidates[_id].voteCount = candidates[_id].voteCount + _inc;\n    //     emit VoteTracker(_id, candidates[_id].voteCount);\n    // }\n\n    // function addVoter(address _name) public {\n    //     voterCount++;\n    //     voters[voterCount] = Voter(voterCount, _name, false);\n    // }\n\n    constructor () public {\n    }\n}",
  "sourcePath": "/Users/xav/Desktop/NorthCoders/project/SmartVote/contracts/Vote.sol",
  "compiler": {
    "name": "solc",
    "version": "0.5.0+commit.1d4f565a.Emscripten.clang"
  },
  "schemaVersion": "3.0.0",
  "updatedAt": "2019-01-10T17:04:55.431Z",
  "devdoc": {
    "methods": {}
  },
  "userdoc": {
    "methods": {}
  }
}