{
  "contractName": "Vote",
  "abi": [
    {
      "constant": true,
      "inputs": [
        {
          "name": "",
          "type": "uint256"
        }
      ],
      "name": "elections",
      "outputs": [
        {
          "name": "creator",
          "type": "address"
        },
        {
          "name": "electionName",
          "type": "string"
        },
        {
          "name": "voteCount",
          "type": "uint256"
        },
        {
          "name": "expirationTime",
          "type": "uint256"
        },
        {
          "name": "candidatesCount",
          "type": "uint256"
        }
      ],
      "payable": false,
      "stateMutability": "view",
      "type": "function",
      "signature": "0x5e6fef01"
    },
    {
      "constant": true,
      "inputs": [],
      "name": "electionCount",
      "outputs": [
        {
          "name": "",
          "type": "uint256"
        }
      ],
      "payable": false,
      "stateMutability": "view",
      "type": "function",
      "signature": "0x997d2830"
    },
    {
      "constant": true,
      "inputs": [],
      "name": "testString",
      "outputs": [
        {
          "name": "",
          "type": "string"
        }
      ],
      "payable": false,
      "stateMutability": "view",
      "type": "function",
      "signature": "0xfb8f0f59"
    },
    {
      "inputs": [],
      "payable": false,
      "stateMutability": "nonpayable",
      "type": "constructor",
      "signature": "constructor"
    },
    {
      "constant": false,
      "inputs": [
        {
          "name": "_creator",
          "type": "address"
        },
        {
          "name": "_electionName",
          "type": "string"
        },
        {
          "name": "_expirationTime",
          "type": "uint256"
        },
        {
          "name": "newCandidates",
          "type": "bytes32[]"
        }
      ],
      "name": "startElection",
      "outputs": [],
      "payable": false,
      "stateMutability": "nonpayable",
      "type": "function",
      "signature": "0x67d99d9c"
    },
    {
      "constant": true,
      "inputs": [
        {
          "name": "_name",
          "type": "bytes32"
        }
      ],
      "name": "getCandidate",
      "outputs": [
        {
          "name": "",
          "type": "uint256"
        },
        {
          "name": "",
          "type": "bytes32"
        },
        {
          "name": "",
          "type": "uint256"
        }
      ],
      "payable": false,
      "stateMutability": "view",
      "type": "function",
      "signature": "0xdfb6419f"
    },
    {
      "constant": false,
      "inputs": [
        {
          "name": "_name",
          "type": "bytes32"
        }
      ],
      "name": "voteForCandidate",
      "outputs": [
        {
          "name": "",
          "type": "uint256"
        },
        {
          "name": "",
          "type": "bytes32"
        },
        {
          "name": "",
          "type": "uint256"
        }
      ],
      "payable": false,
      "stateMutability": "nonpayable",
      "type": "function",
      "signature": "0xcc9ab267"
    }
  ],
  "bytecode": "0x60806040526040805190810160405280601381526020017f496d206865726520666f722074657374696e67000000000000000000000000008152506000908051906020019061004f929190610062565b5034801561005c57600080fd5b50610107565b828054600181600116156101000203166002900490600052602060002090601f016020900481019282601f106100a357805160ff19168380011785556100d1565b828001600101855582156100d1579182015b828111156100d05782518255916020019190600101906100b5565b5b5090506100de91906100e2565b5090565b61010491905b808211156101005760008160009055506001016100e8565b5090565b90565b610a9f806101166000396000f3fe608060405260043610610078576000357c0100000000000000000000000000000000000000000000000000000000900463ffffffff1680635e6fef011461007d57806367d99d9c14610179578063997d2830146102ff578063cc9ab2671461032a578063dfb6419f14610387578063fb8f0f59146103e4575b600080fd5b34801561008957600080fd5b506100b6600480360360208110156100a057600080fd5b8101908080359060200190929190505050610474565b604051808673ffffffffffffffffffffffffffffffffffffffff1673ffffffffffffffffffffffffffffffffffffffff16815260200180602001858152602001848152602001838152602001828103825286818151815260200191508051906020019080838360005b8381101561013a57808201518184015260208101905061011f565b50505050905090810190601f1680156101675780820380516001836020036101000a031916815260200191505b50965050505050505060405180910390f35b34801561018557600080fd5b506102fd6004803603608081101561019c57600080fd5b81019080803573ffffffffffffffffffffffffffffffffffffffff169060200190929190803590602001906401000000008111156101d957600080fd5b8201836020820111156101eb57600080fd5b8035906020019184600183028401116401000000008311171561020d57600080fd5b91908080601f016020809104026020016040519081016040528093929190818152602001838380828437600081840152601f19601f820116905080830192505050505050509192919290803590602001909291908035906020019064010000000081111561027a57600080fd5b82018360208201111561028c57600080fd5b803590602001918460208302840111640100000000831117156102ae57600080fd5b919080806020026020016040519081016040528093929190818152602001838360200280828437600081840152601f19601f820116905080830192505050505050509192919290505050610562565b005b34801561030b57600080fd5b506103146107e4565b6040518082815260200191505060405180910390f35b34801561033657600080fd5b506103636004803603602081101561034d57600080fd5b81019080803590602001909291905050506107ea565b60405180848152602001838152602001828152602001935050505060405180910390f35b34801561039357600080fd5b506103c0600480360360208110156103aa57600080fd5b8101908080359060200190929190505050610867565b60405180848152602001838152602001828152602001935050505060405180910390f35b3480156103f057600080fd5b506103f96108be565b6040518080602001828103825283818151815260200191508051906020019080838360005b8381101561043957808201518184015260208101905061041e565b50505050905090810190601f1680156104665780820380516001836020036101000a031916815260200191505b509250505060405180910390f35b60026020528060005260406000206000915090508060000160009054906101000a900473ffffffffffffffffffffffffffffffffffffffff1690806001018054600181600116156101000203166002900480601f0160208091040260200160405190810160405280929190818152602001828054600181600116156101000203166002900480156105465780601f1061051b57610100808354040283529160200191610546565b820191906000526020600020905b81548152906001019060200180831161052957829003601f168201915b5050505050908060020154908060030154908060040154905085565b60016000815480929190600101919050555060008090505b8151811015610652576004828281518110151561059357fe5b90602001906020020151908060018154018082558091505090600182039060005260206000200160009091929091909150555060606040519081016040528082815260200183838151811015156105e657fe5b906020019060200201518152602001600081525060036000848481518110151561060c57fe5b906020019060200201518152602001908152602001600020600082015181600001556020820151816001015560408201518160020155905050808060010191505061057a565b5060c0604051908101604052808573ffffffffffffffffffffffffffffffffffffffff168152602001848152602001600081526020018381526020018251815260200160006040519080825280602002602001820160405280156106c55781602001602082028038833980820191505090505b5081525060026000600154815260200190815260200160002060008201518160000160006101000a81548173ffffffffffffffffffffffffffffffffffffffff021916908373ffffffffffffffffffffffffffffffffffffffff160217905550602082015181600101908051906020019061074192919061095c565b5060408201518160020155606082015181600301556080820151816004015560a082015181600501908051906020019061077c9291906109dc565b509050506002600060015481526020019081526020016000206005018060018154018082558091505090600182039060005260206000200160007f30783633363136653634363936343631373436353230366636653635000000009091909150555050505050565b60015481565b600080600060036000858152602001908152602001600020600201600081548092919060010191905055506003600085815260200190815260200160002060000154600360008681526020019081526020016000206001015460036000878152602001908152602001600020600201549250925092509193909250565b60008060006003600085815260200190815260200160002060000154600360008681526020019081526020016000206001015460036000878152602001908152602001600020600201549250925092509193909250565b60008054600181600116156101000203166002900480601f0160208091040260200160405190810160405280929190818152602001828054600181600116156101000203166002900480156109545780601f1061092957610100808354040283529160200191610954565b820191906000526020600020905b81548152906001019060200180831161093757829003601f168201915b505050505081565b828054600181600116156101000203166002900490600052602060002090601f016020900481019282601f1061099d57805160ff19168380011785556109cb565b828001600101855582156109cb579182015b828111156109ca5782518255916020019190600101906109af565b5b5090506109d89190610a29565b5090565b828054828255906000526020600020908101928215610a18579160200282015b82811115610a175782518255916020019190600101906109fc565b5b509050610a259190610a4e565b5090565b610a4b91905b80821115610a47576000816000905550600101610a2f565b5090565b90565b610a7091905b80821115610a6c576000816000905550600101610a54565b5090565b9056fea165627a7a72305820f4386eb70478b7c8156dfc5ad69e162c04c9c443942bc7ee1536e10638151f510029",
  "source": "pragma solidity ^0.5.0;\n\ncontract Vote {\n\n    string public testString = \"Im here for testing\";\n\n    struct Election {\n        address creator;\n        string electionName;\n        uint voteCount;\n        uint expirationTime;\n        uint candidatesCount;\n        bytes32[] candidateData;\n    }\n\n    uint public electionCount;\n    mapping(uint => Election) public elections;\n    mapping(bytes32 => Candidate) candidateStorage;\n    bytes32[] candidateNames;\n\n    function startElection(address _creator, string memory _electionName, uint _expirationTime, bytes32[] memory newCandidates) public {\n        electionCount++;\n        for (uint i = 0; i < newCandidates.length; i++) {\n            candidateNames.push(newCandidates[i]);\n            candidateStorage[newCandidates[i]] = Candidate(\n                i,\n                newCandidates[i],\n                0\n            );\n        }\n        elections[electionCount] = Election(_creator, _electionName, 0, _expirationTime, newCandidates.length, new bytes32[](0));\n        elections[electionCount].candidateData.push(\"0x63616e646964617465206f6e65\");\n    }\n\n    function getCandidate(bytes32 _name) public view returns (uint, bytes32, uint) {\n        return (candidateStorage[_name].id, candidateStorage[_name].name, candidateStorage[_name].voteCount);\n    }\n\n    function voteForCandidate(bytes32 _name) public returns (uint, bytes32, uint) {\n        candidateStorage[_name].voteCount++;\n        return (candidateStorage[_name].id, candidateStorage[_name].name, candidateStorage[_name].voteCount);\n    }\n\n    struct Candidate  {\n        uint id;\n        bytes32 name;\n        uint voteCount;\n    }\n\n\n    constructor () public {\n    }\n}\n\n",
  "sourcePath": "/Users/xav/Desktop/NorthCoders/project/SmartVote/contracts/Vote.sol",
  "compiler": {
    "name": "solc",
    "version": "0.5.0+commit.1d4f565a.Emscripten.clang"
  },
  "schemaVersion": "3.0.0",
  "updatedAt": "2019-01-13T15:10:34.972Z",
  "devdoc": {
    "methods": {}
  },
  "userdoc": {
    "methods": {}
  }
}